:0300000002004BB0
:18004B0075F22075F10075F42075F30075EF0075820075830075840073
:1800630075D20075D30075D40079037480F0A3E4F0A319B900F5A900C3
:18007B007480F0A3E4F0A374F0F075EFAC75D808D2DDD2DE30DFFDC289
:18009300DF79007A007B000200A9090200A90A0200A90B0200A912002C
:1800AB00E4E489828A838B84A982AA83AB84E0758408900007F012004D
:1800C300D31200D3B9FFD3BAFFD4BBFFD50200F1C0D0D2D3C2D47D4C3F
:1600DB007C4CDCFEDDFAD0D0227D907E5B7FFFDFFEDEFADDF622C6
:00000001FF
:020000060000F8
