:18000000D2EB12017674A012013712019A740412013712019A1201769F
:1800180074A112013712019A12015712019A120187FB75840890000681
:180030007408F07409F09000017482F012019A900006740CF0740DF044
:18004800EB54F0030303032430900001F012019A900006740CF0740D5C
:18006000F0EB540F2430900001F0740012012212017674A012013712D3
:18007800019A740312013712019A12017674A112013712019A12015768
:1800900012019A120187FB900006740CF0740DF0EB54F0030303032440
:1800A80030900001F012019A900006740CF0740DF0EB540F2430900039
:1800C00001F0740012012212017674A012013712019A74021201371228
:1800D800019A12017674A112013712019A12015712019A120187FB90A4
:1800F0000006740CF0740DF0EB54F0030303032430900001F012019A54
:18010800900006740CF0740DF0EB540F2430900001F0740012019A0222
:18012000000212019A900006740CF0740DF0742D900001F012019A755D
:180138003108D2EEC2ED3392EFD2EDC2EDD531F6C2EED2ED12019A309D
:18015000EC02D200C2ED22E500753108C2EEC2EDD2EDC2EDA2EC33D510
:1801680031F6D2EED2EFD2ED12019AC2ED22D2EED2EFD2ED12019AC2EB
:18018000EF12019AC2ED22D2EEC2EDC2EFD2ED12019AD2EF12019AC23E
:13019800EE22C0D0D2D3C2D47908780FD8FED9FAD0D02206
:00000001FF
:020000060000F8
