:030000000200807B
:06000300758000022003DD
:06000B0075800002200BCD
:06001300758000022013BD
:06001B0075800002201BAD
:060023007580000220239D
:06002B0075800002202B8D
:060033007580000220337D
:06003B0075800002203B6D
:060043007580000220435D
:0C008000787FE4F6D8FD7581800200C78F
:1002FB00202020202053444B2D312E310032303022
:0E030B003120284329204C4D54204C746400AE
:10010C0090212C121DA2E4FFC2071205109011E8D9
:10011C00E493FE740193AA06F97BFF7D1012056A25
:10012C00E4FFD20712051090212C121D997D10129C
:03013C00056A222F
:10013F00786276017862E6FD60177F077E00120312
:10014F00937F327E001219B77862E6FF25E0F680C2
:10015F00E3786276807862E6FD60177F077E001293
:10016F0003937F327E001219B77862E6FFC313F64E
:0B017F0080E37F077E00E4FD12039385
:01018A002252
:10018B007BFF7A0279FB120536E4FFD207120510CA
:10019B007BFF7A037908120536C2A9E4785FF6086B
:1001AB00F67F047E007D3C1203937F027E001219C2
:1001BB00A67F047E007D201203937F027E0012191E
:1001CB00A6786006E670021806C37860E694F41809
:0D01DB00E6940140CCD2A912013F12041796
:0101E80022F4
:1001E9009011FAE493FE740193AA06F97BFF1205B4
:1001F90036E4FFD2071205109011FCE493FE740156
:0A02090093AA06F97BFF12053622C6
:10021300E4F51012038012018B7F047E007D20120F
:1002230003937F027E001203AD8F10E51030E703C6
:100233001219CD12073B1204171201E97FD07E0772
:100243001219B7E4F5109011EAE493FE740193AA2E
:1002530006F97BFF7D0590211FE510F0A37412F0D2
:10026300A37410F012131B8F10EF14601514601792
:10027300146019146079240470CC1201E91212FC81
:1002830080C4120EA980BF12171E80BA9011ECE42D
:1002930093FE740193AA06F97BFF1205361212F23C
:1002A30050051212FC803C750F017F077E00AD0FD5
:1002B3001203937F327E001219B7E50F25E0F50F85
:1002C300430F01E50FB4FFE2E50F60D17F077E0026
:1002D300FD1203937F327E001219B7E50F25E0F577
:1002E3000F80E57F077E00E4FD12039302024912AB
:0702F30019CD02024980FE53
:0102FA0022E1
:100319007580FFE4F584F587F588F589F58AF58C0C
:10032900F58BF58D7590FFF598F59B75A0FFF5A8F0
:10033900F5A975B0FFF5B8F5B975BA5275BB04F5ED
:10034900C075C4C9F5C6F5C8F5CAF5CBF5CCF5CD68
:10035900F5D2F5D3F5D4F5D875DFDCF5E875EF20DE
:10036900F5F175F220F5F3F5F4F5F875FD04F5F9F5
:07037900F5FBF5FAF5FC228B
:1003800012031912042C7FFDC2061218001207E393
:03039000D2AF22C7
:10039300AC84A2AFE433F9C2AF7584088F828E8335
:0903A300EDF08C84E924FF92AF17
:0103AC00222E
:1003AD00AD84E4FBA2AF33F9C2AF7584088F828EA2
:0C03BD0083E0FB8D84E924FF92AFAF03C6
:0103C9002211
:07065A00C181011E00C10077
:0503CA00A207920122D0
:1003CF008F1C7F067E00E51C4401FD1203937F0600
:1003DF007E00E51C54FEFD1203937F027E0012196E
:0203EF00B72233
:1003F1007F017E003006047D0280027D00ED440C09
:10040100FD3007047C0180027C00ED4CFD1203935A
:060411007F081203CF2258
:100417007F017E007D011203937F081203CFE478EA
:050427001EF6C20022D8
:10042C00E4785FF608F6786006E670021806785FE6
:10043C00B60FF308B6A0EF7F017E007D3012039358
:10044C007F081203CFE4785FF608F6786006E67052
:10045C00021806785FB605F308B6DCEF7F017E0064
:10046C007D301203937F081203CFE4785FF608F611
:10047C00786006E6700218067860E66432184670FA
:10048C00EF7F017E007D301203937F081203CF7F34
:10049C00017E007D381203937F081203CF7F017E0B
:1004AC00007D081203937F081203CF7F017E007D2D
:1004BC00011203937F081203CF7F017E007D061289
:1004CC0003937F081203CF7F017E007D0C120393F0
:0504DC007F081203CFB0
:0104E10022F8
:1004E2008F1530011A781EE6FFA20092071205103E
:1004F200781E06E6D36480948F4004E4F6B2007F4F
:0E050200017E00AD151203937F0C1203CF2271
:100510008F167F017E003007047D4080027D00E55C
:10052000162D4480FD1203937F081203CF781EA678
:0605300016A20792002252
:060536008B118A128913EB
:10053C00A2019206D2071203CAAB11AA12A9131276
:10054C001C1D60127811E475F001121D79121C1D2E
:0D055C00FF1204E280E3A20692071203CA18
:01056900226F
:08056A008B118A1289138D1414
:10057200E514C394035022121C1DFF700302065996
:100582001204E2AB11AA12A913900001121C36FF49
:1005920070030206591204E22215141514E4785F5E
:1005A200F6AB11AA12A913785FE6FEF582758300F5
:1005B200121C36FF600EEEC3951450081204E27846
:1005C2005F0680DD05140514AB11AA12A913785F2A
:1005D200E6FFF582758300121C366003EF70107817
:1005E2005FE606C39514506F7F201204E280F07814
:1005F2005FE6FF7E002401FDEE33AB11AA12A913C0
:100602008D82F583121C36600FEF2402FFEE338FCA
:1006120082F583121C367035AB11AA12A913785FCA
:10062200E6F582758300121C366012785FE606F5E5
:1006320082758300121C36FF1204E280DB785FE6CB
:1006420006C3951450117F201204E280F07F2E120F
:0706520004E27F2E1204E216
:01065900227E
:1006CB00785F7623087600E47862F6785FE6FE08BA
:1006DB00E6FF4E60167862E6F48F828E83F07860C8
:1006EB0006E67002180678620680E0785F762308CB
:1006FB007600E408F6785FE6FE08E6FF4E60198F99
:10070B00828E83E0F408666002D322786006E6707E
:09071B0002180678610680DDC3B6
:0107240022B2
:0B0725007FA21208B74002D322C322BB
:0B0730007FA01208B74002D322C322B2
:10073B009011EEE493FE740193AA06F97BFF120568
:10074B00361206CB50139011F0E493FE740193AA6A
:10075B0006F97BFF12010C80FE120725501B90112E
:10076B00F2E493FE740193AA06F97BFF12010C7F4E
:10077B00D07E071219B7120417120730501B9011B5
:10078B00D8E493FE740193AA06F97BFF12010C7F48
:0A079B00D07E071219B712041722CE
:1007A500C0E0C0F0C083C082C0D0C000C001C0029C
:1007B500C003C004C005C006C00712121A758C4ECE
:1007C500758A20D007D006D005D004D003D002D03A
:0E07D50001D000D0D0D082D083D0F0D0E0325E
:1007E3007F017C077DA51208005388EF5389F043EE
:0D07F3008901E4F58CF58AD2A94388102213
:10080000EF75F008A42403FFE5F03420FE0FEFAAF3
:100810000670010E14F5828A837402F08F828E8333
:05082000ECF0A3EDF077
:0108250022B0
:0D082600E4FFAE070FC3EE6480948240F53E
:0108330022A2
:02083400AD070E
:10083600D2EEC2EDE4FCC3EC648094885018ED302F
:10084600E703D38001C392EFD2ED120826C2ED0C66
:10085600ED25E0FD80E0C2EED2ED120826A2EC9274
:0508660006C2EDA20630
:01086B00226A
:10086C00D2EED2EFD2ED120826C2EF120826C2ED5C
:01087C002259
:10087D00D2EEC2EDC2EFD2ED120826D2EF1208264B
:03088D00C2EE2296
:0B089000AD0712086CAF0512083422FF
:0E089B00D2EEC2EDC2EFD2ED120826C2ED225F
:0E08A900D2EEC2EDD2EFD2ED120826C2ED2241
:1008B700D2EBEF54FEFF120890500512087DC322B9
:0508C70012087DD322A0
:1008CC00E4FDC2EEC2EDFCED25E0FDD2ED120826F2
:0F08DC00A2ECE4334DFDC2ED0CECB408EAAF051D
:0108EB0022EA
:0D08EC0090211CEDF0A3EAF0A3EBF0A907AA
:1008F900D2EBE954FEF9FF120890500512087DD396
:100909002290211CE0FF120834500512087DD322E1
:10091900120826120826E94401F9FF120890500529
:1009290012087DD32212082690211FE014602CE4BE
:10093900FB90211FE014FFEBC39F501F1208CCA3AB
:10094900EFF012089BE0FF90211DE475F001121DE4
:100959003885F082F583EFF00B80D61208CC902110
:1009690020EFF01208A9E0FF90211DE0FCA3E0F5BB
:09097900828C83EFF012087DC3AB
:010982002252
:02098300A905C4
:10098500D2EBEF54FEFF120890500512087DD322DA
:10099500AF01120834500512087DD322E4F99021E5
:1009A50025E0FFE9C39F50188B828A83E0FF120878
:1009B50034500512087DD322090BBB00010A80DEE5
:0409C50012087DC3D4
:0109C900220B
:01107300007C
:1006610049210900003A00003A0000004921000038
:08067100002E00002E00000025
:1009CA00902115E0543FFF7B017A21790912146BBB
:1009DA00902114E0FF7B017A21790C12146B90218B
:0D09EA0013E0FF7B017A21790F12146B22BC
:1009F700902116E0543FFF7B017A21790012146B96
:100A0700902117E0541FFF7B017A21790312146BA1
:100A1700902116E0FFC413135403FF7B017A217959
:050A27000612146B2211
:100A2C00902121121DA2902124121D9990000112D7
:100A3C001C36FFC4135407FF902121121D99EF128D
:100A4C001C63902124121D99121C1D543FFF12147B
:100A5C005C902121121D99900001EF121C759021C0
:100A6C0024121D99900001121C36541FFF12145CA5
:100A7C00902121121D99900002EF121C75902124D7
:100A8C00121D99121C1DFFC413135403FF90212136
:0B0A9C00121D99900003EF121C752240
:100AA700902121121DA2902124121D99900001125C
:100AB7001C36FF121448902124121D99900003122E
:100AC7001C36FEC4333354C04FFF902121121D99A9
:100AD700EF121C63902124121D99900002121C36FC
:100AE700FF121448902124121D99121C1DFEC433B5
:100AF70054E04FFF902121121D99900001EF121C25
:020B0700752255
:100B09007B017A21791390211C121DA2E4FFC207EF
:100B19001205109011DAE493FE740193AA06F97B89
:100B2900FF120536D206D2071203F190211B740A6F
:100B3900F0FFD2071205101212FCEF24DD70030238
:100B49000BDA24F97003020C0824F8604924FC60CC
:100B59002824FE605F24046003020C3C90211BE002
:100B6900D394045003020C3CE024FDF090211DE4D1
:100B790075F001121D22020C3C90211BE0C3940A5E
:100B89004003020C3CE02403F090211D74FFF5F0B2
:100B9900121D22020C3C90211C121D9990211BE070
:100BA900D3940440047D3C80027D181214871209F5
:100BB900CA020C3C90211C121D9990211BE0D39470
:100BC9000440047D3C80027D1812149F1209CA80DA
:100BD900627FA07D017A217B129021257404F01295
:100BE9000983501B9011D8E493FE740193AA06F966
:100BF9007BFF12010C7FE87E031219B7120417C29A
:100C090006C2071203F1E4FFC2071205109011DCB6
:100C1900E493FE740193AA06F97BFF7D1012056A1D
:100C29007F0DD2071205107BFF7A1079737D0312AD
:100C3900056A227F03D2071205107B017A217909FF
:100C490012053690211BE0FFD207120510020B4056
:010C59002278
:100C5A007B017A217916902124121DA27A21791D0D
:100C6A00120A2C1204179011DEE493FE740193AA5F
:100C7A0006F97BFF120536D206D2071203F190213C
:100C8A001B740AF0902105742EF0E4FFD2071205B6
:100C9A001090211DE075F002901202121D6DE4936E
:100CAA00FE740193AA06F97BFF1205367F2012040F
:100CBA00E290211EE0FF7B017A21790012148090D4
:100CCA00211FE0FF7B017A217903121480902120F1
:100CDA00E0FF7B017A2179061214807B017A21795F
:100CEA000012053690211BE0FFD207120510902151
:100CFA001FE024FE601824FB600C24FE600824FE1A
:100D0A0060042407701E90211C741EF0801C902120
:100D1A0020E0600890211C741CF0800E90211C7445
:100D2A001DF0800690211C741FF01212FCEF24DDC6
:100D3A007003020E4A24F97003020E8B24F86038FD
:100D4A0024FC602124FE7003020DE82404600302DF
:100D5A000C9490211BE0D394015003020C94E024DC
:100D6A00FDF0020C9490211BE0C3940A4003020C8C
:100D7A0094E02403F0020C9490211BE024FC6020F0
:100D8A0024FD603824FD604924096003020C949014
:100D9A00211DE004F0E075F00784E5F0F0020C9400
:100DAA0090211EE004F090211CE0FF90211EE0D368
:100DBA009F5003020C947401F0020C9490211FE0DE
:100DCA0004F0E0D3940C5003020C947401F0020C6A
:100DDA0094902120E004F0E05403F0020C94902156
:100DEA001BE024FC602424FD603724FD60452409AF
:100DFA006003020C9490211DE070067406F0020C48
:100E0A009490211DE014F0020C9490211EE014F03D
:100E1A00E06003020C9490211CE090211EF0020C69
:100E2A009490211FE014F0E06003020C94740CF01B
:100E3A00020C94902120E014F0E05403F0020C9488
:100E4A007B017A21791D902124121DA27A2179161B
:100E5A00120AA77FA07D057A217B169021257402AC
:100E6A00F0120983501B9011D8E493FE740193AADF
:100E7A0006F97BFF12010C7FE87E031219B71204F0
:100E8A0017C206C2071203F11204179011E0E49385
:0E0E9A00FE740193AA06F97BFF7D1012056A13
:010EA8002227
:100EA90090210B743AF090210EF0E4902111F0900A
:100EB9002102742EF0E4902108F0A3F07FA012081B
:100EC900B750257FA0E4FD7A217B0990212504F004
:100ED90012098340137FA07D017A217B1290211F83
:100EE9007406F01208EC50199011D8E493FE7401BD
:100EF90093AA06F97BFF12010C7FE87E031219B74A
:100F090022E490211AF09011E2E493FE740193AA6D
:100F190006F97BFF7D0290211AE090211FF0A3744E
:100F290011F0A374FEF012131B90211AEFF0E4FFE5
:100F3900C20712051090211AE0147003020FC6248B
:100F49000270030210721470BD9011DCE493FE74F8
:100F59000193AA06F97BFF7D1012056A7FA07D0126
:100F69007A217B1290211F7404F01208EC50199019
:100F790011D8E493FE740193AA06F97BFF12010CC0
:100F89007FE87E031219B7221209CA7F03D207121A
:100F990005107B017A2179097D0B12056A1212F27B
:100FA90050BA1212FC902119EFF0642A7003020F53
:100FB9000F902119E0B423A4120B09809F9011E02E
:100FC900E493FE740193AA06F97BFF7D1012056A6A
:100FD9001212F2500B1212FCEF642A7003020F0F67
:100FE9007FA07D057A217B1690211F7402F01208DB
:100FF900EC50199011D8E493FE740193AA06F97B79
:10100900FF12010C7FE87E031219B7221209F77F3C
:1010190002D207120510902117E0FFC41354077577
:10102900F002901202121D6DE493FE740193AA0658
:10103900F97BFF1205367F201204E27B017A2179C0
:10104900001205361212F250871212FC902119EF84
:10105900F0642A7003020F0F902119E064236003E2
:09106900020FD9120C5A020FD932
:01107200225B
:1010740043B3C7B7C4206320C0616361BCB8210017
:10108400A963BF2E20B37065BC2E3A203C3ED9DA4A
:101094000020202020427065BCC73A00A963BF2EFF
:1010A40020E361BFC33A203C3ED9DA00202020204F
:1010B40020E061BF613A002DAB6163C32D004FB6E0
:1010C400B8E361BDB8652E2E2E00A461B47079B763
:1010D400BA612E2E2E0020202020204FC1B8B2BA93
:1010E40061002DA1BB61B3BD6F6520BC65BDC62D7C
:1010F400004861B6BCB8BF6520BABB61B3B8C1795A
:1011040000546563BFB8706FB361BDB8652E2E2EF1
:101114000043B26FB920BE61BCC7BFB8210043B35E
:10112400C7B7C4206320454550524F4D21002020AD
:101134005465BCBE657061BF7970613A0043B3C742
:10114400B7C4206320E361BFC0B8BA6FBC002020DD
:10115400D92D32203E2D3620232D7E002020DA2D5D
:1011640038203C2D34202A2D45736300A86FBA61C2
:10117400B72F7963BF20B37065BCC700A86FBA618D
:10118400B72F7963BF20E361BF7900426300A8BD34
:101194000042BF00437000ABBF00A8BF0043B200D1
:1011A400A86FE363BA61B7BA6100AB6163C32FE0B0
:1011B40061BF61005465BCBE657061BF7970610038
:1011C40043B365BF6FE3B86FE3C300A461B4707940
:1011D400B7BA610010741084109510A010B010BB41
:1011E40010C210CE10DA10E610F5110511151122F7
:1011F4001074113211411152116011701180118F4C
:10120400119211951198119B119E11A111A411AE67
:0612140011B811C411CF56
:1006790011333134372A3235383033363923414250
:100689004344000121000122000108000109000181
:020699000A0055
:10121A00530903530803E509C3940440030212BDAA
:10122A00E4FFFEAD0904A805088002C333D8FCF424
:10123A00FD120393E508C394045070E4FFFE120301
:10124A00ADEFFD7C0074107E00A808088005C3334A
:10125A00CE33CED8F9FFEE5CFEEF5D4E7046E50A5E
:10126A00146008047009750A01C322050A800BE597
:10127A000AC3941E5004050AC3227822E6FFC364F7
:10128A00809490501DE50925E025E025082433F8CF
:10129A00E6FE7821E62F540F2423F8A606782206C4
:1012AA00D322C322E4F50A050880890509E4F50872
:0412BA00021220C339
:0112BE00220D
:1012BF00E4F512E4F5130513E513B402F97F047E88
:1012CF00007D3C120393E4F5130513E513B402F903
:1012DF007F047E007D201203930512E512C39496BE
:0212EF0040D1EC
:0112F10022DA
:0A12F2007822E66003D38001C322D6
:1012FC007822E660FBC2A97821E6540F2423F8E695
:0E130C00F51178210608161212BFD2A9AF11F2
:01131A0022B0
:0B131B0090211B121DA290211EEDF07E
:10132600120417C206C2071203F1E4902122F090BC
:10133600211B121D99902122E0FFF5827583001270
:101346001C366008902122E004F080E3EFC3940F7E
:10135600500DC3740F9FFFC313FFC20712051090F1
:10136600211B121D997D0F12056A7F0FC2071205F8
:10137600107FD91204E27F0FD2071205107FDA120E
:1013860004E290211EE0FFA3E0FEC39F40047F001D
:101396008002AF06902122EFF0E4FFD2071205107B
:1013A600902120E0FEA3E0F5828E83C083C0829068
:1013B6002122E0D082D08375F002121D6DE493FEE7
:1013C600740193AA06F97BFF7D0F12056A1212FCBF
:1013D600EF24DD606424F9605A24F6604224FE603E
:1013E6004624FE601C240670B0902122E0FF6004B3
:1013F60014FF800690211EE014FF902122EFF0805A
:101406009890211EE014FF902122E0FEC39F500514
:10141600EE04FF80027F00902122EFF002139FE48A
:10142600902122F002139F90211EE014902122F0B9
:1014360002139F90212274FFF0120417902122E0DC
:01144600FFA6
:011447002282
:10144800EF75F00A84FEC454F0FEEF75F00A84E5E7
:04145800F04EFF2231
:0F145C00EFC4540F75F00AA4FEEF540F2EFF22B9
:10146B00EFC4540F2430121C63EF540F2430900040
:05147B0001121C7522A6
:0614800012144812146B67
:011486002243
:10148700121C1DFF12145CAE050FEF8EF084AFF037
:07149700121448EF121C6360
:01149E00222B
:10149F00121C1DFF12145CEF7005ED14FF80011F6D
:0F14AF00AE05EF8EF084AFF0121448EF121C63FD
:0114BE00220B
:04069B0041211800E1
:1014BF0012183C902118E054F9FEF0EF5403FD256B
:0914CF00E04EF0EF6002D322C3ED
:0114D80022F1
:0614D900902118E0FF2243
:0614DF008B0B8A0C890D45
:1014E500902118E030E002D3221214BF5002D3221B
:1014F5007F331218AEE4F50EAB0B7E00E50D250E1D
:10150500F9EE350CFA121949050EE50EC39408409B
:04151500E71214BF06
:0115190022AF
:06151A0090212C121DA21D
:10152000902118E030E002D3221214BF5002D322DF
:101530007FCC1218AE7FBE1218AE7B017A21792FB4
:1015400012194990212FE0FFA3E4F0A3EFF07B01F3
:101550007A21792F12194990212FE0FEA3E04EFE47
:10156000A3E0FF902130EEF0A3EFF0FF7C007D10B0
:10157000121CEC902130EEF0A3EFF090212C121D04
:0A15800099EE8FF0121D4E1214BFF9
:01158A00223E
:10158B00902118E030E002D3221214BF5002D32274
:10159B007FCC1218AE1218F3902118E04401F07FA3
:1015AB00EE7E021219B7902118E054FEF0121819B2
:0315BB001214BF48
:0115BE00220A
:10069F00015C0A014400C102C103C1041745303196
:1006AF003233343536373839414243444546616237
:0506BF006364656600A4
:0A15BF008E118F128B138A14891508
:1015C900C206E4F516300216C3EE64809480500E0C
:1015D900C3E49FF512E49EF511D206751601AB120C
:1015E900AA11EB4A6019EB4A6018AE02AF03785CA6
:1015F900E6FD7C00121C97AA06AB07051680E77565
:101609001601E5162515F515E43514F51430030909
:10161900AB13FAA915E4121C63E5124511603CE508
:101629001245116047785CE6FD7C00AE11AF1212DD
:101639001C978D1774452517F8E6FF781374FFF585
:10164900F0121D89EF121C63AE11AF12785CE6FD32
:101659007C00121C978E118F1280C47845E6FF78A2
:101669001374FFF5F0121D89EF121C6330060E7812
:0F1679001374FFF5F0121D89742D121C63AF1648
:01168800223F
:08168900A2049206C204A206AD
:011691002236
:10169200E4F51CF51D7445251CF8E6FF6028121CB4
:1016A2001DFD3395E0FC7E00EDB50716EEB5041284
:1016B200E51CD3940F400674FA251CF51C851C1DED
:1016C2008004051C80CF7445251CF8E67004D20402
:1016D200FF22E4F51C7445251CF8E6FF60319000FA
:1016E20001121C36FD3395E0FC7E00EDB5071CEEC1
:1016F200B50418E51CD3940F400674FA251CF51C9A
:10170200E51DC454F0451CF51D8004051C80C674FB
:0B17120045251CF8E67002D204AF1D54
:01171D0022A9
:0617C300EF43202020008E
:10171E0090212AE4F0A304F0785C760AD202D20378
:10172E001204179011F6E493FE740193AA06F97B46
:10173E00FF1205367F05D20712051090212AE0FE12
:10174E00A3E0FF7B017A2179191215BF7B017A2163
:10175E0079191205367BFF7A1779C31205361212E4
:10176E00F2500A1212FCBF2A041204172212158B11
:10177E00501C9011F8E493FE740193AA06F97BFFB6
:10178E0012010C7FDC7E051219B7120417227B01A1
:10179E007A21792A12151A509B9011F8E493FE744F
:1017AE000193AA06F97BFF12010C7FDC7E0512194C
:0417BE00B712041743
:0117C2002204
:0317C900A29822C1
:0817CC008F99C2993099FD22AA
:0817D4003098FDC298AF992284
:1017DC008B118A128913AB11AA12A913121C1D604A
:1017EC00127811E475F001121D79121C1DFF1217ED
:0417FC00CC80E32298
:101800008F8D438920300605438780800353877F6F
:09181000438840759850C2AC22D7
:10181900AF84A2AF9206C2AF758408742090000409
:10182900F0E4758202F08F84A20692AF208C031235
:0318390007E322A0
:10183C00858412A2AF9206C2AF758408900004741E
:10184C0021F07F2F7E001219A69000047420F085E1
:10185C008A11758202E054016016C3E58A9511D392
:10186C00943C400A851284A20692AF7F022280E546
:10187C007F037E001219A6858A11758202E054013D
:10188C007016C3E58A9511D394B4400A851284A2CC
:10189C000692AF7F032280E5851284A20692AF7F69
:0218AC00002218
:1018AE008F11858413A2AF9206C2AF758408900083
:1018BE0004E4F512E51130E0087421F07420F08094
:1018CE00037421F07F027E001219A67420F0E51138
:1018DE00C313F5110512E512C3940840D78513847E
:0518EE00A20692AF22EA
:1018F300751244858413A2AF9206C2AF7584089013
:101903000004E4F511E51230E0087421F07420F0CE
:1019130080037421F07F027E001219A67420F0E583
:1019230012C313F5120511E511C3940740D77421AF
:10193300F07F017E001219A67582027401F08513EF
:0619430084A20692AF220F
:101949008B118A128913858416A2AF9206C2AF75CC
:101959008408E4F515F514E515C313F5159000048D
:101969007421F0007420F0000000000000000090D5
:101979000002E0540160034315807F037E001219C1
:10198900A60514E514C3940840CD851684A20692D1
:0D199900AFAB11AA12A913E515121C6322B1
:1019A600A2AFC2AFEF1FA80670011E4870F692AF35
:0119B600220E
:1019B700AA06AB077E007F641219A6EB1BA802706C
:0619C700011A4870EF2236
:101C0700202020202048455832303200484558329D
:061C170030322D303200D6
:0606C400C185025DF0009B
:1019CD00E4785FF608F61203197FFDC206121800BF
:1019DD007BFF7A1C7907120536E4FFD2071205103A
:1019ED009011E4E493FE740193AA06F97BFF1205AE
:1019FD0036E4FFD2071205107BFF7A1C79131217FC
:101A0D00DCE4785FF608F61217C95003121A38781D
:101A1D006006E670021806C37860E6947018E694C6
:0B1A2D001740E47F2E1217CC80D72258
:101A38001217D47861EFF624C67029121A6E50076F
:101A48007F2D1217CC801B3005139011E6E493FE0E
:101A5800740193AA06F97BFF120536C2057F2B1283
:061A680017CCC322D322BB
:101A6E00E4F512F513F514F515F516F517F51AF547
:101A7E001BC3E51A9401505B1217D48F11E5116444
:101A8E000D6005E511B40A201217C950051217D4BE
:101A9E0080F6785DE6FC08E68C83251BF582E51A58
:101AAE003583F583E4F0802B785DE6FE08E6F5825B
:101ABE008E83C083C082051BE51BAE1A7002051A09
:101ACE0014D082D0832582F582EE3583F583E5111D
:101ADE00F0809EE4F518F519F51AF51BF511785DF1
:101AEE00E6FC08E6FD8C83251BF582E51A3583F5A9
:101AFE0083E0603CE51B2DFFE51A3CFAA9077B014C
:101B0E00121692785DE6FA08E68A832519F582E5C3
:101B1E00183583F583EFF02511F5110519E51970C8
:101B2E000205187402251BF51BE4351AF51A80AE52
:101B3E001216894004E5116002D322785DE6FC0896
:101B4E00E6FDF5828C83E0F512A3E0FE8D828C8398
:101B5E00A3A3E0FBEEF514EBF5158D828C83A3A306
:101B6E00A3E0F51314605824FB605624C060522481
:101B7E00467074851416851517E4F51AF51BC3E522
:101B8E001B9512E51A94005036E51B2404FFE4352C
:101B9E001AFE785DE6FC08E68C832FF582EE35831F
:101BAE00F583E0FF0517E517AC167002051614F560
:101BBE00828C83EFF0051BE51B7002051A80BFC3F4
:101BCE00227F2B1217CC120417E4F51AF51B051BF6
:101BDE00E51B7002051AE51BB410F3E51AB427EEE7
:091BEE00AE14AF15121BF7D3224F
:101BF7008E1C8F1D1203198E838F82E4F58073224A
:10008C00020213E493A3F8E493A34003F68001F275
:10009C0008DFF48029E493A3F85407240CC8C33375
:1000AC00C4540F4420C8834004F456800146F6DF44
:1000BC00E4800B010204081020408090065AE47E74
:1000CC00019360BCA3FF543F30E509541FFEE49339
:1000DC00A360010ECF54C025E060A840B8E493A300
:1000EC00FAE493A3F8E493A3C8C582C8CAC583CA2B
:1000FC00F0A3C8C582C8CAC583CADFE9DEE780BEE3
:0106CA00002F
:101C1D00BB010689828A83E0225002E722BBFE02C5
:091C2D00E32289828A83E49322F8
:101C3600BB010CE58229F582E5833AF583E0225063
:101C460006E92582F8E622BBFE06E92582F8E222AD
:0D1C5600E58229F582E5833AF583E49322C7
:101C6300BB010689828A83F0225002F722BBFE0160
:021C7300F3225A
:101C7500F8BB010DE58229F582E5833AF583E8F0A5
:101C8500225006E92582C8F622BBFE05E92582C851
:021C9500F22239
:101C9700BC000BBE0029EF8DF084FFADF022E4CC31
:101CA700F875F008EF2FFFEE33FEEC33FCEE9DECFA
:101CB700984005FCEE9DFE0FD5F0E9E4CEFD22ED40
:101CC700F8F5F0EE8420D21CFEADF075F008EF2F8A
:101CD700FFED33FD4007985006D5F0F222C398FD7B
:051CE7000FD5F0EA2218
:101CEC00C2D5EC30E709B2D5E4C39DFDE49CFCEE13
:101CFC0030E715B2D5E4C39FFFE49EFE121C97C3D8
:101D0C00E49DFDE49CFC8003121C9730D507C3E4D2
:061D1C009FFFE49EFE2281
:101D2200C5F0F8A3E028F0C5F0F8E582158270024C
:061D32001583E038F022E9
:101D3800A3F8E0C5F025F0F0E5821582700215835E
:061D4800E0C838F0E822BB
:101D4E00BB010A89828A83F0E5F0A3F0225006F7E0
:0F1D5E0009A7F01922BBFE06F3E5F009F31922DD
:0C1D6D00A42582F582E5F03583F5832281
:101D7900FAE6FB0808E6F925F0F618E6CA3AF6226B
:101D8900FAE6FB0808E625F0F9F618E63AFAF6222B
:091D9900E0FBA3E0FAA3E0F9224B
:091DA200EBF0A3EAF0A3E9F02242
:00000001FF
