:03E0000002E00338
:0CE00300787FE4F6D8FD75814A02E04AFF
:07E2EF00C183011F00C10201
:05E08F00A20C92032227
:10E094008F2E7F067E00E52E4401FD12E3267F06C7
:10E0A4007E00E52E54FEFD12E3267F017E0012E47D
:02E0B400CD227B
:10E0B6007F017E003000047D0280027D00ED440C6D
:10E0C600FD3001047C0180027C00ED4CFD12E3264C
:06E0D6007F0812E0942215
:10E0DC007F017E007D0112E3267F0812E094E47834
:05E0EC001FF6C2022234
:10E0F1007F0F7E0012E4CD7F017E007D3012E3268A
:10E101007F0812E0947F057E0012E4CD7F017E003E
:10E111007D3012E3267F0812E0947F057E0012E431
:10E12100CD7F017E007D3012E3267F0812E0947FCF
:10E13100017E007D3812E3267F0812E0947F017E84
:10E14100007D0812E3267F0812E0947F017E007DA6
:10E151000112E3267F0812E0947F017E007D061202
:10E16100E3267F0812E0947F017E007D0C12E326F6
:05E171007F0812E0949C
:01E176002286
:10E177008F2C30031A781FE6FFA202920C12E1A53A
:10E18700781F06E6D36480948F4004E4F6B2027FDA
:0EE19700017E00AD2C12E3267F0C12E09422D4
:10E1A5008F2D7F017E00300C047D4080027D00E5CF
:10E1B5002D2D4480FD12E3267F0812E094781FA6DA
:06E1C5002DA20C920222C3
:06E1CB008B298A2A892B32
:10E1D100A203920BD20C12E08FAB29AA2AA92B120F
:10E1E100EBB260127829E475F00112EC5F12EBB228
:0DE1F100FF12E17780E3A20B920C12E08F89
:01E1FE0022FE
:08E1FF008B088A09890A8D0BC7
:10E20700E50BC39403502212EBB2FF700302E2EE58
:10E2170012E177AB08AA09A90A90000112EBCBFF1C
:10E22700700302E2EE12E17722150B150BE4781E5C
:10E23700F6AB08AA09A90A781EE6FEF582758300DF
:10E2470012EBCBFF600EEEC3950B500812E1777807
:10E257001E0680DD050B050BAB08AA09A90A781E67
:10E26700E6FFF58275830012EBCB6003EF70107841
:10E277001EE606C3950B506F7F2012E17780F0787A
:10E287001EE6FF7E002401FDEE33AB08AA09A90AAA
:10E297008D82F58312EBCB600FEF2402FFEE338FF5
:10E2A70082F58312EBCB7035AB08AA09A90A781E51
:10E2B700E6F58275830012EBCB6012781EE606F551
:10E2C7008275830012EBCBFF12E17780DB781EE6C5
:10E2D70006C3950B50117F2012E17780F07F2E1235
:07E2E700E1777F2E12E177C1
:01E2EE00220D
:10E32600AC84A2AFE433F9C2AF7584088F828E83C2
:09E33600EDF08C84E924FF92AFA4
:01E33F0022BB
:10E34000AD84E4FBA2AF33F9C2AF7584088F828E2F
:0CE3500083E0FB8D84E924FF92AFAF0353
:01E35C00229E
:10E2F60001470A012F00C105C106C1071730303199
:10E306003233343536373839414243444546616203
:05E31600636465660070
:0AE35D008E0C8F0D8B0E8A0F8910B5
:10E36700C204E4F511300516C3EE64809480500EA4
:10E37700C3E49FF50DE49EF50CD204751101AB0DB6
:10E38700AA0CEB4A6019EB4A6018AE02AF03784754
:10E39700E6FD7C0012EC0AAA06AB07051180E775BB
:10E3A7001101E5112510F510E4350FF50F300609B9
:10E3B700AB0EFAA910E412EBF8E50D450C603CE54D
:10E3C7000D450C60477847E6FD7C00AE0CAF0D129B
:10E3D700EC0A8D1274302512F8E6FF780E74FFF5FB
:10E3E700F012EC6FEF12EBF8AE0CAF0D7847E6FDCD
:10E3F7007C0012EC0A8E0C8F0D80C47830E6FF7813
:10E407000E74FFF5F012EC6FEF12EBF830040E7894
:0FE417000E74FFF5F012EC6F742D12EBF8AF11CD
:01E4260022D3
:08E42700A207920BC207A20B31
:01E42F0022CA
:10E43000E4F529F52A74302529F8E6FF602812EB67
:10E44000B2FD3395E0FC7E00EDB50716EEB5041283
:10E45000E529D3940F400674FA2529F52985292A40
:10E460008004052980CF74302529F8E67004D2078E
:10E47000FF22E4F52974302529F8E6FF6031900089
:10E480000112EBCBFD3395E0FC7E00EDB5071CEEF1
:10E49000B50418E529D3940F400674FA2529F52907
:10E4A000E52AC454F04529F52A8004052980C6745C
:0BE4B000302529F8E67002D207AF2AE1
:01E4BB00223E
:10E4BC00A2AFC2AFEF1FA80670011E4870F692AF54
:01E4CC00222D
:10E4CD00AA06AB07AE13AF1412E4BCEB1BA8027087
:06E4DD00011A4870EF2255
:05E4E3008E138F1422CE
:04E31B000213006485
:10E4E8004FB6B8E361BDB8652E2E2E00A461B47096
:10E4F80079B7BA612E2E2E0043BFB87061BDB865DA
:10E508002E2E2E2020202020004FC1B8B2BA612024
:10E5180063BFB87061BDB8C72100E4E8E4F4E50062
:02E52800E511FB
:03E52A00A2982292
:08E52D003099FDC2998F99227B
:08E535003098FDC298AF992255
:10E53D008B228A238924AB22AA23A92412EBB26051
:10E54D00127822E475F00112EC5F12EBB2FF12E5C6
:04E55D002D80E32208
:10E561008F8D758920300B05438780800353877F0A
:09E57100438840759852C2AC22A7
:10EB7600202020202053444B2D312E3100323030BE
:10EB86003120284329204C4D54204C7464004845BC
:10EB9600583230322D30330020202020204845586E
:0CEBA600323032004348495049443D00E1
:06E31F00C188C189C18A1A
:10E57A00E47848F608F6E47848F608F612E52A50F0
:10E58A000312EA08784906E670021806C37849E6D3
:10E59A00947018E6941740E47F2E12E52D80D72256
:10E5AA00E4F59E7580FFF584F587F588F589F58A87
:10E5BA00F58CF58BF58D7590FFF598F59B75A0FF99
:10E5CA00F5A875B0FFF5B8F5B9F5C0F5C6F5C8F503
:10E5DA00CAF5CBF5CCF5CDF5D2F5D3F5D4F5D8758A
:10E5EA00DFDCF5E875EF20F5F175F220F5F3F5F4C7
:0EE5FA00F5F875FD04F5F9F5FBF5FAF5FC22D0
:10E6080012E0DC7BFF7AEB797612E1CBE4FFD20CE7
:10E6180012E1A57BFF7AEB798312E1CBE47848F627
:10E6280008F67F047E007D3C12E3267F017E0012FF
:10E63800E4BC7F047E007D2012E3267F017E001269
:10E64800E4BC784906E670021806C37849E694F4F3
:10E6580018E66480948140CA784876000876807FFE
:10E66800077E007849E6FD12E3267F327E0012E439
:10E67800CD7848E6A2E7137948F708E61309F718B2
:10E688004670DC784876000876FF7849E6FD601D1C
:10E698007F077E0012E3267F327E0012E4CD7849A0
:10E6A800E625E07949F718E63319F780DD7F077E1C
:10E6B80000E4FD12E32612E0DC7BFF7AEB7994128A
:03E6C800E53D220B
:10E6CB007BFF7AEB799E12E1CBE4FFD20C12E1A532
:10E6DB0090E522E493FE740193AA06F97BFF12E105
:09E6EB00CBE4FFD20C12E1A522E0
:10E6F400E4FFD20C12E1A590E526E493FE740193A5
:10E70400AA06F97BFF12E1CB751500751680E51595
:10E71400F5C78516C675B90574402516F516E43592
:10E7240015F515C394E040E6751500751680851639
:10E7340082851583E493F517F460037F012205169F
:10E74400E51670020515E4B516E4E515B4E0DF7FBF
:02E754000022A1
:10E75600E4FFD20C12E1A590E526E493FE74019342
:10E76600AA06F97BFF12E1CBE4F5C6F5C775B90534
:10E7760075C640F5C775B905F51885188275830005
:10E78600E493F519F460037F01220518E518B480B7
:04E79600E97F0022F5
:10E79A0090010EEEF0A3EFF0A3EDF0A3EAF0A3EBE5
:10E7AA00F030082312E6F4EF601BE4FFD20C12E10A
:10E7BA00A590E528E493FE740193AA06F97BFF125B
:10E7CA00E1CB7F0122C208C390010FE0948090013F
:10E7DA000EE09400500E30090B12E756EF60037FEB
:10E7EA000122C20990010EE0FEA3E08E1CF51DE491
:10E7FA00F51AF51B900110E0FFC3E51B9F7480F822
:10E80A00651A98504D90010EE0F5C7A3E0F5C69041
:10E81A000111E0FCA3E0251BF582E51A3CF583E033
:10E82A00FFF5BC75B982E51D251BF582E51A351C75
:10E83A00F583E4936F60037F0122051BE51B7002D9
:10E84A00051A90010FE004F0700690010EE004F042
:05E85A0080A27F0022F6
:10E85F0075B90FE4F5C7F5C675B90175B905AD07FB
:10E86F008DBCEEF5BD75B90275B904E5B960047FCD
:06E87F000180027F00226F
:10E88500900000EEF0A3EFF0A3EDF0784776107856
:10E895002F76027F2012E52DE4900003F0A3F0907F
:10E8A5000002E0FFA3E0FCA3E0FDC39F7480F8EC49
:10E8B5006480985046900000E0FEA3E02DF582ECC0
:10E8C5003EF583E493FF7E007B017A00790512E330
:10E8D5005D74052FF582E43400F583E4F07B017A5D
:10E8E50000790512E53D7F2012E52D900004E00436
:0CE8F500F07006900003E004F080A42204
:10E9010075B90FE4F5C6F5C775B901AFBDEFFFAD38
:10E91100BCED90010ACFF0A3EFF090010AE0FEA355
:10E92100E0FFBEFF06BFFF0312E60812E6CB75B992
:10E93100F0E490010CF0A3F07F2E12E52DE490019C
:10E9410008F0A3F07F017E0012E4CD12E52A500405
:10E9510012EA0822900109E004F07006900108E033
:10E9610004F0C3900109E0940A900108E0648094E6
:10E971008040D190010DE004F0700690010CE0049C
:10E98100F0C390010DE0940A90010CE06480948042
:10E9910040A690010AE0FEA3E0F47002EEF4600EDE
:0FE9A10012E0DC90010AE0FEA3E0FF12EB63221C
:10E9B00043AF01E5C2C4540FFFBF030CE4F59E7FD3
:10E9C000FDC20B12E5618010759E83759D2D7598B3
:10E9D000527FBB7E0012E4E312E0F17BFF7AEB7919
:10E9E000AA12E53DE5C2C4540F2430FF12E52DE51F
:10E9F000C2540F2430FF12E52D7F2012E52D12E9BD
:08EA00000175B9F012E57A225C
:10EA080012E535784AEFF624C6703012EA45500709
:10EA18007F2D12E52D8022300A1AE4FFD20C12E174
:10EA2800A590E524E493FE740193AA06F97BFF12EE
:0DEA3800E1CBC20A7F2B12E52DC322D322B1
:10EA4500E4F527F528C3E5279401504212E5358FF3
:10EA550022E522640D6005E522B40A1912E52A5063
:10EA65000512E53580F674082528F582E43400F5AD
:10EA750083E4F080190528E528AE277002052714E0
:10EA85002408F582EE3400F583E522F080B7E4F53D
:10EA950023F524F527F528F522AF2874082FF582EC
:10EAA500E43400F583E0603F74082FF9E43400FA9C
:10EAB5007B0112E430AE2474082EF582E43400F5AF
:10EAC50083EFF074082EF582E43400F583E0252207
:10EAD500F5220524E5247002052374022528F5286E
:10EAE500E43527F52780B212E4274004E5226002C9
:10EAF500D322900008E0FDA3E0FEA3E0FBEEF525A0
:10EB0500EBF526A3E0FF14601C24FB601A24C0600B
:10EB15001624467047AF26AE257A007B0C12E79A7D
:10EB2500EF6002D322C322AF26AE2512E85FEF6065
:10EB350002D3227F2B12E52D3099FD12E0DCE4F59E
:10EB450027F5280528E52870020527E528B410F3E0
:0EEB5500E527B427EEAE25AF2612EB63D322E0
:10EB63008E298F2A12E5AA75B90F8E838F82E4F559
:03EB73008073228A
:10E00F0002E9B0E493A3F8E493A34003F68001F28E
:10E01F0008DFF48029E493A3F85407240CC8C33312
:10E02F00C4540F4420C8834004F456800146F6DFE1
:10E03F00E4800B010204081020408090E2EFE47EA0
:10E04F00019360BCA3FF543F30E509541FFEE493D6
:10E05F00A360010ECF54C025E060A840B8E493A39D
:10E06F00FAE493A3F8E493A3C8C582C8CAC583CAC8
:10E07F00F0A3C8C582C8CAC583CADFE9DEE780BE80
:01E3250000F7
:10EBB200BB010689828A83E0225002E722BBFE0261
:09EBC200E32289828A83E4932294
:10EBCB00BB010CE58229F582E5833AF583E02250FF
:10EBDB0006E92582F8E622BBFE06E92582F8E22249
:0DEBEB00E58229F582E5833AF583E4932263
:10EBF800BB010689828A83F0225002F722BBFE01FC
:02EC0800F322F5
:10EC0A00BC000BBE0029EF8DF084FFADF022E4CCEE
:10EC1A00F875F008EF2FFFEE33FEEC33FCEE9DECB7
:10EC2A00984005FCEE9DFE0FD5F0E9E4CEFD22EDFD
:10EC3A00F8F5F0EE8420D21CFEADF075F008EF2F47
:10EC4A00FFED33FD4007985006D5F0F222C398FD38
:05EC5A000FD5F0EA22D5
:10EC5F00FAE6FB0808E6F925F0F618E6CA3AF622B6
:10EC6F00FAE6FB0808E625F0F9F618E63AFAF62276
:00000001FF
