:180000007584089000067408F07409F0900001741CF01200C9900006F6
:180018007408F07409F09000017482F01200C9900006740CF0740DF02E
:18003000900001744CF01200C99000067408F07409F09000017483F0B5
:180048001200C9900006740CF0740DF09000017445F01200C9900006A3
:180060007408F07409F09000017484F01200C9900006740CF0740DF0E4
:180078009000017452F01200C99000067408F07409F09000017485F065
:180090001200C9900006740CF0740DF09000017441F01200C91200C91A
:1800A8001200C91200C91200C91200C91200C91200C91200C91200C968
:1800C0001200C91200C9020003C0D0D2D3C2D4799C7892D8FED9FAD00A
:0200D800D02234
:00000001FF
