:030000000200807B
:06000300758000022003DD
:06000B0075800002200BCD
:06001300758000022013BD
:06001B0075800002201BAD
:060023007580000220239D
:06002B0075800002202B8D
:060033007580000220337D
:06003B0075800002203B6D
:060043007580000220435D
:0C008000787FE4F6D8FD7581800200C78F
:1002CE0020202020204FC1B8B2BA6100202020206B
:1002DE002053444B2D312E31003230303120284303
:1002EE0029204C4D54204C7464002020D92D3220EE
:1002FE003E2D3620232D7E002020DA2D38203C2D59
:10030E0034202A2D45736300A86FE363BA61B7BA30
:10031E006100AB6163C32FE061BF61005465BCBE79
:10032E00657061BF7970610043B365BF6FE3B86FED
:10033E00E3C300A461B47079B7BA61002DA1BB61AB
:10034E00B3BD6F6520BC65BDC62D004861B6BCB897
:0B035E00BF6520BABB61B3B8C17900D5
:100369004F2100FF0316FF0320FF032AFF0336FF77
:0203790003413E
:10010C00902156121CB5E4FFC2071206047BFF7A3D
:10011C000279CE7D1012065E902156121CAC7D1019
:04012C0012065E2237
:10013000786276017862E6FD60177F077E00120420
:10014000877F327E001218CE7862E6FF25E0F680C7
:10015000E3786276807862E6FD60177F077E0012A2
:1001600004877F327E001218CE7862E6FFC313F652
:0B01700080E37F077E00E4FD1204879F
:01017B002261
:10017C007BFF7A0279DA12062AE4FFD20712060410
:10018C007BFF7A0279E712062AC2A9E4785FF608A7
:10019C00F67F047E007D241204877F027E001218F5
:1001AC00BD7F047E007D201204877F027E00121822
:1001BC00BD786006E670021806C37860E694F41801
:0D01CC00E6940140CCD2A912013012050BBF
:0101D9002203
:1001DA007BFF7A0279F812062AE4FFD20712060494
:0A01EA007BFF7A03790612062A2231
:1001F400E4F51012047412017C7F047E007D201249
:1002040004877F027E001204A18F10E51030E703FB
:100214001218E41207BE12050B1201DA7FD07E0712
:100224001218CEE4F510902149E510F07B017A21F3
:100234007900A3121CB57D057BFF7A03794A12125B
:100244003F8F10EF14601514601714601914607157
:10025400240470D21201DA12122080CA120F148000
:10026400C512162E80C07BFF7A03795912062A1212
:1002740012165005121220803C750F017F077E0074
:10028400AD0F1204877F327E001218CEE50F25E0F1
:10029400F50F430F01E50FB4FFE2E50F60D17F07CF
:1002A4007E00FD1204877F327E001218CEE50F25F2
:1002B400E0F50F80E57F077E00E4FD12048702026B
:0902C4002A1218E402022A80FE4D
:0102CD00220E
:10040D007580FFE4F584F587F588F589F58AF58C17
:10041D00F58BF58D7590FFF598F59B75A0FFF5A8FB
:10042D00F5A975B0FFF5B8F5B975BA5275BB04F5F8
:10043D00C075C4C9F5C6F5C8F5CAF5CBF5CCF5CD73
:10044D00F5D2F5D3F5D4F5D875DFDCF5E875EF20E9
:10045D00F5F175F220F5F3F5F4F5F875FD04F5F900
:07046D00F5FBF5FAF5FC2296
:1004740012040D1205207FFDC206121717120883FD
:03048400D2AF22D2
:10048700AC84A2AFE433F9C2AF7584088F828E8340
:09049700EDF08C84E924FF92AF22
:0104A0002239
:1004A100AD84E4FBA2AF33F9C2AF7584088F828EAD
:0C04B10083E0FB8D84E924FF92AFAF03D1
:0104BD00221C
:07037B00C181011E00C10059
:0504BE00A207920122DB
:1004C3008F1C7F067E00E51C4401FD1204877F0616
:1004D3007E00E51C54FEFD1204877F027E00121885
:0204E300CE2227
:1004E5007F017E003006047D0280027D00ED440C14
:1004F500FD3007047C0180027C00ED4CFD12048771
:060505007F081204C3226E
:10050B007F017E007D011204877F081204C3E4780B
:05051B001EF6C20022E3
:10052000E4785FF608F6786006E670021806785FF1
:10053000B60FF308B6A0EF7F017E007D301204876E
:100540007F081204C3E4785FF608F6786006E67068
:10055000021806785FB605F308B6DCEF7F017E006F
:100560007D301204877F081204C3E4785FF608F632
:10057000786006E6700218067860E6643218467005
:10058000EF7F017E007D301204877F081204C37F55
:10059000017E007D381204877F081204C37F017E2C
:1005A000007D081204877F081204C37F017E007D4E
:1005B000011204877F081204C37F017E007D0612AA
:1005C00004877F081204C37F017E007D0C1204871C
:0505D0007F081204C3C6
:0105D5002203
:1005D6008F1530011A781EE6FFA200920712060454
:1005E600781E06E6D36480948F4004E4F6B2007F5A
:0E05F600017E00AD151204877F0C1204C32293
:100604008F167F017E003007047D4080027D00E567
:10061400162D4480FD1204877F081204C3781EA699
:0606240016A2079200225D
:06062A008B118A128913F6
:10063000A2019206D2071204BEAB11AA12A913128C
:100640001B3C60127811E475F001121C8C121B3CEB
:0D065000FF1205D680E3A20692071204BE39
:01065D00227A
:08065E008B118A1289138D141F
:10066600E514C394035022121B3CFF700302074D8E
:100676001205D6AB11AA12A913900001121B55FF41
:10068600700302074D1205D62215141514E4785F7F
:10069600F6AB11AA12A913785FE6FEF58275830000
:1006A600121B55FF600EEEC3951450081205D6783E
:1006B6005F0680DD05140514AB11AA12A913785F35
:1006C600E6FFF582758300121B556003EF70107804
:1006D6005FE606C39514506F7F201205D680F0782A
:1006E6005FE6FF7E002401FDEE33AB11AA12A913CB
:1006F6008D82F583121B55600FEF2402FFEE338FB8
:1007060082F583121B557035AB11AA12A913785FB7
:10071600E6F582758300121B556012785FE606F5D2
:1007260082758300121B55FF1205D680DB785FE6C3
:1007360006C3951450117F201205D680F07F2E1225
:0707460005D67F2E1205D637
:01074D002289
:10080800546563BFB8706FB361BDB8652E2E2E00F6
:1008180043B26FB920BE61BCC7BFB8210043B3C79C
:10082800B7C4206320454550524F4D210043B3C7FC
:0D083800B7C4206320C0616361BCB821001B
:10074E00785F7623087600E47862F6785FE6FE0836
:10075E00E6FF4E60167862E6F48F828E83F0786044
:10076E0006E67002180678620680E0785F76230847
:10077E007600E408F6785FE6FE08E6FF4E60198F15
:10078E00828E83E0F408666002D322786006E670FB
:09079E0002180678610680DDC333
:0107A700222F
:0B07A8007FA21209574002D322C32297
:0B07B3007FA01209574002D322C3228E
:1007BE007BFF7A08790812062A12074E500B7BFF30
:1007CE007A08791812010C80FE1207A850137BFFCD
:1007DE007A08792512010C7FD07E071218CE1205E9
:1007EE000B1207B350137BFF7A08793512010C7F79
:0A07FE00D07E071218CE12050B2260
:10084500C0E0C0F0C083C082C0D0C000C001C002FB
:10085500C003C004C005C006C00712112C758C4E1C
:10086500758A20D007D006D005D004D003D002D099
:0E08750001D000D0D0D082D083D0F0D0E032BD
:100883007F017C087D451208A05388EF5389F0430C
:0D0893008901E4F58CF58AD2A94388102272
:1008A000EF75F008A42403FFE5F03420FE0FEFAA53
:1008B0000670010E14F5828A837402F08F828E8393
:0508C000ECF0A3EDF0D7
:0108C5002210
:0D08C600E4FFAE070FC3EE6480948240F59E
:0108D3002202
:0208D400AD076E
:1008D600D2EEC2EDE4FCC3EC648094885018ED308F
:1008E600E703D38001C392EFD2ED1208C6C2ED0C26
:1008F600ED25E0FD80E0C2EED2ED1208C6A2EC9234
:0509060006C2EDA2068F
:01090B0022C9
:10090C00D2EED2EFD2ED1208C6C2EF1208C6C2ED7B
:01091C0022B8
:10091D00D2EEC2EDC2EFD2ED1208C6D2EF1208C66A
:03092D00C2EE22F5
:0B093000AD0712090CAF051208D4221D
:0E093B00D2EEC2EDC2EFD2ED1208C6C2ED221E
:0E094900D2EEC2EDD2EFD2ED1208C6C2ED2200
:10095700D2EBEF54FEFF120930500512091DC322D6
:0509670012091DD3225E
:10096C00E4FDC2EEC2EDFCED25E0FDD2ED1208C6B1
:0F097C00A2ECE4334DFDC2ED0CECB408EAAF057C
:01098B002249
:0D098C00902146EDF0A3EAF0A3EBF0A907DF
:10099900D2EBE954FEF9FF120930500512091DD3B3
:1009A90022902146E0FF1208D4500512091DD322D6
:1009B9001208C61208C6E94401F9FF1209305005A8
:1009C90012091DD3221208C6902149E014602CE4B3
:1009D900FB902149E014FFEBC39F501F12096CA340
:1009E900EFF012093BE0FF902147E475F001121C7A
:1009F9005785F082F583EFF00B80D612096C9021B0
:100A09004AEFF0120949E0FF902147E0FCA3E0F525
:090A1900828C83EFF012091DC369
:010A220022B1
:020A2300A90523
:100A2500D2EBEF54FEFF120930500512091DD322F7
:100A3500AF011208D4500512091DD322E4F9902103
:100A45004FE0FFE9C39F50188B828A83E0FF1208AD
:100A5500D4500512091DD322090BBB00010A80DE03
:040A650012091DC392
:010A6900226A
:1010A900A86FBA61B72F7963BF20B37065BCC70059
:1010B900A86FBA61B72F7963BF20E361BF79004296
:1010C9006300A8BD0042BF00437000ABBF00A8BFCA
:1010D9000043B200A963BF2E20B37065BC2E3A202D
:1010E9003C3ED9DA0043B3C7B7C4206320C061636B
:1010F90061BCB8210020202020427065BCC73A009D
:1011090000A963BF2E20E361BFC33A203C3ED9DA70
:10111900002020202020E061BF613A002DAB6163EF
:03112900C32D00D3
:10038200462136FF10A9FF10B955210FFF10C8FFF3
:1003920010CBFF10CEFF10D1FF10D4FF10D7FF10EB
:1003A200DA49212D00003A00003A000000492124D8
:0903B20000002E00002E000000E6
:100A6A0090213FE0543FFF7B017A21792D12137BBD
:100A7A0090213EE0FF7B017A21793012137B90218D
:0D0A8A003DE0FF7B017A21793312137B22BE
:100A9700902140E0543FFF7B017A21792412137B98
:100AA700902141E0541FFF7B017A21792712137BA4
:100AB700902140E0FFC413135403FF7B017A21798F
:050AC7002A12137B223E
:100ACC0090214B121CB590214E121CAC90000112BF
:100ADC001B55FFC4135407FF90214B121CACEF1293
:100AEC001B8290214E121CAC121B3C543FFF121364
:100AFC006C90214B121CAC900001EF121B949021B6
:100B0C004E121CAC900001121B55541FFF12136C9B
:100B1C0090214B121CAC900002EF121B9490214EB2
:100B2C00121CAC121B3CFFC413135403FF90214B3B
:0B0B3C00121CAC900003EF121B94226F
:100B470090214B121CB590214E121CAC9000011243
:100B57001B55FF12135890214E121CAC9000031224
:100B67001B55FEC4333354C04FFF90214B121CACAE
:100B7700EF121B8290214E121CAC900002121B55E3
:100B8700FF12135890214E121CAC121B3CFEC433AB
:100B970054E04FFF90214B121CAC900001EF121B49
:020BA700942296
:100BA9007B017A21793D902146121CB5E4FFC207E9
:100BB9001206047BFF7A1079DD12062AD206D207C3
:100BC9001204E5902145740AF0FFD20712060412B7
:100BD9001220EF24DD7003020C7124F97003020C5A
:100BE9009724F8604924FC602824FE605E24046090
:100BF90003020CC3902145E0D394045003020CC3B3
:100C0900E024FDF0902147E475F001121C41020C2B
:100C1900C3902145E0C3940A4003020CC3E02403B6
:100C2900F090214774FFF5F0121C41020CC390218A
:100C390046121CAC902145E0D3940440047D3C80CD
:100C4900027D18121397120A6A806F902146121CAE
:100C5900AC902145E0D3940440047D3C80027D188A
:100C69001213AF120A6A80527FA07D017A217B3C60
:100C790090214F7404F0120A2350137BFF7A1079E4
:100C8900EE12010C7FE87E031218CE12050BC20684
:100C9900C2071204E5E4FFC2071206047BFF7A10BB
:100CA90079FE7D1012065E7F0DD2071206047BFFC6
:100CB9007A1179097D0312065E227F03D207120693
:100CC900047B017A21792D12062A902145E0FFD271
:070CD90007120604020BD80C
:010CE00022F1
:100CE1007B017A21794090214E121CB57A217947F6
:100CF100120ACC12050B7BFF7A11790A12062AD24D
:100D010006D2071204E5902145740AF09021297456
:100D11002EF0E4FFD207120604902147E075F0039C
:100D2100A4240FF582E43421F583121CAC12062AA7
:100D31007F201205D6902148E0FF7B017A2179249A
:100D4100121390902149E0FF7B017A217927121338
:100D51009090214AE0FF7B017A21792A1213907B3E
:100D6100017A21792412062A902145E0FFD2071247
:100D71000604902149E024FE601824FB600C24FE47
:100D8100600824FE60042407701E902146741EF042
:100D9100801C90214AE06008902146741CF0800E6E
:100DA100902146741DF08006902146741FF01212A6
:100DB10020EF24DD7003020EC524F97003020EFE3C
:100DC10024F8603824FC602124FE7003020E6324A1
:100DD100046003020D13902145E0D39401500302F6
:100DE1000D13E024FDF0020D13902145E0C3940A98
:100DF1004003020D13E02403F0020D13902145E09E
:100E010024FC602024FD603824FD6049240960032E
:100E1100020D13902147E004F0E075F00784E5F03E
:100E2100F0020D13902148E004F0902146E0FF907C
:100E31002148E0D39F5003020D137401F0020D13FA
:100E4100902149E004F0E0D3940C5003020D137497
:100E510001F0020D1390214AE004F0E05403F00286
:100E61000D13902145E024FC602424FD603724FD0E
:100E7100604524096003020D13902147E070067458
:100E810006F0020D13902147E014F0020D1390219A
:100E910048E014F0E06003020D13902146E0902138
:100EA10048F0020D13902149E014F0E06003020DB7
:100EB10013740CF0020D1390214AE014F0E0540376
:100EC100F0020D137B017A21794790214E121CB556
:100ED1007A217940120B477FA07D057A217B4090D2
:100EE100214F7402F0120A2350137BFF7A1079EE1E
:100EF10012010C7FE87E031218CE12050BC206C246
:100F0100071204E512050B7BFF7A11791A7D101285
:020F1100065E7A
:010F130022BB
:100F140090212F743AF0902132F0E4902135F09032
:100F24002126742EF0E490212CF0A3F07FA0120966
:100F34005750257FA0E4FD7A217B2D90214F04F0AA
:100F4400120A2340137FA07D017A217B3C90214922
:100F54007406F012098C50117BFF7A1079EE12019D
:100F64000C7FE87E031218CE22E4902144F09021F5
:100F740044E0902149F07B017A217936A3121CB513
:100F84007D027BFF7A11792512123F902144EFF004
:100F9400E4FFC207120604902144E014606E2402A8
:100FA40070030210A81470C67BFF7A1079FE7D10BE
:100FB40012065E7FA07D017A217B3C902149740456
:100FC400F012098C50117BFF7A1079EE12010C7F1C
:100FD400E87E031218CE22120A6A7F03D207120691
:100FE400047B017A21792D7D0B12065E12121650B4
:100FF400C2121220902143EFF0642A7003020F7290
:10100400902143E0B423AC120BA980A77BFF7A1193
:10101400791A7D1012065E121216500B121220EF6E
:10102400642A7003020F727FA07D057A217B4090B1
:1010340021497402F012098C50117BFF7A1079EE69
:1010440012010C7FE87E031218CE22120A977F0247
:10105400D207120604902141E0FFC413540775F02F
:1010640003A4240FF582E43421F583121CAC120688
:101074002A7F201205D67B017A21792412062A12AE
:1010840012165093121220902143EFF0642A700339
:10109400020F72902143E06423600302101B120CC0
:0410A400E102101B3A
:0110A8002225
:1003BB0011333134372A3235383033363923414211
:1003CB004344000121000122000108000109000142
:0203DB000A0016
:10112C00530903530803E509C3940440030211CF88
:10113C00E4FFFEAD0904A805088002C333D8FCF413
:10114C00FD120487E508C394045070E4FFFE1204FA
:10115C00A1EFFD7C0074107E00A808088005C33345
:10116C00CE33CED8F9FFEE5CFEEF5D4E7046E50A4D
:10117C00146008047009750A01C322050A800BE586
:10118C000AC3941E5004050AC3227822E6FFC364E6
:10119C00809490501DE50925E025E025082433F8BE
:1011AC00E6FE7821E62F540F2423F8A606782206B3
:1011BC00D322C322E4F50A050880890509E4F50861
:0411CC00021132C317
:0111D00022FC
:1011D100E4F512E4F5130513E513B402F97F047E77
:1011E100001204A1EF4404FD7F047E00120487E491
:1011F100F5130513E513B402F97F047E001204A16F
:10120100EF54FBFD7F047E001204870512E512C333
:04121100949640BFB0
:0112150022B6
:0A1216007822E66003D38001C322B2
:101220007822E660FBC2A97821E6540F2423F8E671
:0E123000F51178210608161211D1D2A9AF11BE
:01123E00228D
:0B123F00902145121CB5902148EDF0F5
:10124A0012050BC206C2071204E5E490214DF09084
:10125A002145121CAC90214DE0FFF58275830012E6
:10126A001B55600890214DE004F080E3EFC3940F12
:10127A00500DC3740F9FFFC313FFC20712060490D9
:10128A002145121CAC7D0F12065E7F0FC2071206A3
:10129A00047FD91205D67F0FD2071206047FDA120D
:1012AA0005D6902148E0FFA3E0FEC39F40047F00DB
:1012BA008002AF0690214DEFF0E4FFD20712060438
:1012CA0090214A121CAC90214DE075F003A4F582DE
:1012DA0085F083121CBE7D0F12065E121220EF24C7
:1012EA00DD606224F9605824F6604124FE604424DB
:1012FA00FE601C240670C290214DE0FF600414FFBA
:10130A008006902148E014FF90214DEFF080AA90CA
:10131A002148E014FF90214DE0FEC39F5005EE04E2
:10132A00FF80027F0090214DEFF0808DE490214DE7
:10133A00F08086902148E01490214DF00212C3906B
:0D134A00214D74FFF012050B90214DE0FFC6
:011357002273
:10135800EF75F00A84FEC454F0FEEF75F00A84E5D8
:04136800F04EFF2222
:0F136C00EFC4540F75F00AA4FEEF540F2EFF22AA
:10137B00EFC4540F2430121B82EF540F2430900013
:05138B0001121B942279
:0613900012135812137B3A
:011396002234
:10139700121B3CFF12136CAE050FEF8EF084AFF0FB
:0713A700121358EF121B8224
:0113AE00221C
:1013AF00121B3CFF12136CEF7005ED14FF80011F31
:0F13BF00AE05EF8EF084AFF0121358EF121B82C1
:0113CE0022FC
:0403DD004121420078
:1013CF00121753902142E054F9FEF0EF5403FD251C
:0913DF00E04EF0EF6002D322C3DE
:0113E80022E2
:0613E900902142E0FF220A
:0613EF008B0B8A0C890D36
:1013F500902142E030E002D3221213CF5002D322D3
:101405007F331217C5E4F50EAB0B7E00E50D250EF7
:10141500F9EE350CFA121860050EE50EC394084076
:04142500E71213CFE8
:0114290022A0
:06142A00902156121CB5D2
:10143000902142E030E002D3221213CF5002D32297
:101440007FCC1217C57FBE1217C57B017A2179594F
:10145000121860902159E0FFA3E4F0A3EFF07B01A4
:101460007A217959121860902159E0FEA3E04EFECE
:10147000A3E0FF90215AEEF0A3EFF0FF7C007D1077
:10148000121C0B90215AEEF0A3EFF0902156121C83
:0A149000ACEE8FF0121C6D1213CFAA
:01149A00222F
:10149B00902142E030E002D3221213CF5002D3222C
:1014AB007FCC1217C512180A902142E04401F07F3D
:1014BB00207E031218CE902142E054FEF01217301A
:0314CB001213CF2A
:0114CE0022FB
:1003E100015C0A014400C102C103C1041745303157
:1003F10032333435363738394142434445466162F8
:05040100636465660064
:0A14CF008E118F128B138A148915F9
:1014D900C206E4F516300216C3EE64809480500EFD
:1014E900C3E49FF512E49EF511D206751601AB12FD
:1014F900AA11EB4A6019EB4A6018AE02AF03785C97
:10150900E6FD7C00121BB6AA06AB07051680E77537
:101519001601E5162515F515E43514F514300309FA
:10152900AB13FAA915E4121B82E5124511603CE5DB
:101539001245116047785CE6FD7C00AE11AF1212CE
:101549001BB68D1774452517F8E6FF781374FFF558
:10155900F0121C9CEF121B82AE11AF12785CE6FDF3
:101569007C00121BB68E118F1280C47845E6FF7875
:101579001374FFF5F0121C9CEF121B8230060E78D3
:0F1589001374FFF5F0121C9C742D121B82AF1609
:011598002230
:08159900A2049206C204A2069E
:0115A1002227
:1015A200E4F51CF51D7445251CF8E6FF6028121BA6
:1015B2003CFD3395E0FC7E00EDB50716EEB5041256
:1015C200E51CD3940F400674FA251CF51C851C1DDE
:1015D2008004051C80CF7445251CF8E67004D204F3
:1015E200FF22E4F51C7445251CF8E6FF60319000EB
:1015F20001121B55FD3395E0FC7E00EDB5071CEE94
:10160200B50418E51CD3940F400674FA251CF51C8A
:10161200E51DC454F0451CF51D8004051C80C674EC
:0B16220045251CF8E67002D204AF1D45
:01162D00229A
:1016BA0020205465BCBE657061BF7970613A00EF45
:1016CA00432020200043B3C7B7C4206320E361BF8F
:0616DA00C0B8BA6FBC00AD
:10162E00E4902154F0A3F0785C760AD202D2031231
:10163E00050B7BFF7A1679BA12062A7F05D207129E
:10164E000604902154E0FEA3E0FF7B017A2179434A
:10165E001214CF7B017A21794312062A7BFF7A1668
:10166E0079C912062A121216500A121220BF2A0423
:10167E0012050B2212149B50147BFF7A1679CF128F
:10168E00010C7FDC7E051218CE12050B227B017A2F
:10169E0021795412142A50A37BFF7A1679CF1201A6
:0B16AE000C7FDC7E051218CE12050B2D
:0116B900220E
:0316E000A29822AB
:0816E3008F99C2993099FD2294
:0816EB003098FDC298AF99226E
:1016F3008B118A128913AB11AA12A913121B3C6016
:10170300127811E475F001121C8C121B3CFF1216A7
:04171300E380E3226A
:101717008F8D438920300605438780800353877F59
:09172700438840759850C2AC22C1
:10173000AF84A2AF9206C2AF7584087420900004F3
:10174000F0E4758202F08F84A20692AF208C03121F
:03175000088322E9
:10175300858412A2AF9206C2AF7584089000047408
:1017630021F07F2F7E001218BD9000047420F085B5
:101773008A11758202E054016016C3E58A9511D37C
:10178300943C400A851284A20692AF7F022280E530
:101793007F037E001218BD858A11758202E0540111
:1017A3007016C3E58A9511D394B4400A851284A2B6
:1017B3000692AF7F032280E5851284A20692AF7F53
:0217C300002202
:1017C5008F11858413A2AF9206C2AF75840890006D
:1017D50004E4F512E51130E0087421F07420F0807E
:1017E500037421F07F027E001218BD7420F0E5110C
:1017F500C313F5110512E512C3940840D785138468
:05180500A20692AF22D3
:10180A00751244858413A2AF9206C2AF75840890FC
:10181A000004E4F511E51230E0087421F07420F0B8
:10182A0080037421F07F027E001218BD7420F0E557
:10183A0012C313F5120511E511C3940740D7742199
:10184A00F07F017E001218BD7582027401F08513C3
:06185A0084A20692AF22F9
:101860008B118A128913858416A2AF9206C2AF75B6
:101870008408E4F515F514E515C313F51590000477
:101880007421F0007420F0000000000000000090BF
:101890000002E0540160034315807F037E001218AC
:1018A000BD0514E514C3940840CD851684A20692A4
:0D18B000AFAB11AA12A913E515121B82227D
:1018BD00A2AFC2AFEF1FA80670011E4870F692AF1F
:0118CD0022F8
:1018CE00AA06AB077E007F641218BDEB1BA8027040
:0618DE00011A4870EF2220
:101B0E002020202020484558323032004FB6B8E30E
:101B1E0061BDB8652E2E2E004845583230322D301C
:0E1B2E003200A461B47079B7BA612E2E2E0079
:06040600C185025DF0005B
:1018E400E4785FF608F612040D7FFDC2061217179E
:1018F4007BFF7A1B790E12062AE4FFD20712060434
:101904007BFF7A1B791A12062AE4FFD20712060417
:101914007BFF7A1B79261216F3E4785FF608F61239
:1019240016E05003121947786006E670021806C3E1
:101934007860E6947018E6941740E47F2E1216E35C
:0319440080D72227
:101947001216EB7861EFF624C6702112197550074D
:101957007F2D1216E3801330050B7BFF7A1B79303E
:0E19670012062AC2057F2B1216E3C322D322DA
:10197500E4F512F513F514F515F516F517F51AF541
:101985001BC3E51A9401505B1216EB8F11E5116428
:101995000D6005E511B40A201216E050051216EB8C
:1019A50080F6785DE6FC08E68C83251BF582E51A52
:1019B5003583F583E4F0802B785DE6FE08E6F58255
:1019C5008E83C083C082051BE51BAE1A7002051A03
:1019D50014D082D0832582F582EE3583F583E51117
:1019E500F0809EE4F518F519F51AF51BF511785DEB
:1019F500E6FC08E6FD8C83251BF582E51A3583F5A3
:101A050083E0603CE51B2DFFE51A3CFAA9077B0145
:101A15001215A2785DE6FA08E68A832519F582E5AE
:101A2500183583F583EFF02511F5110519E51970C2
:101A35000205187402251BF51BE4351AF51A80AE4C
:101A45001215994004E5116002D322785DE6FC0881
:101A5500E6FDF5828C83E0F512A3E0FE8D828C8392
:101A6500A3A3E0FBEEF514EBF5158D828C83A3A300
:101A7500A3E0F51314605824FB605624C06052247B
:101A8500467074851416851517E4F51AF51BC3E51C
:101A95001B9512E51A94005036E51B2404FFE43526
:101AA5001AFE785DE6FC08E68C832FF582EE358319
:101AB500F583E0FF0517E517AC167002051614F55A
:101AC500828C83EFF0051BE51B7002051A80BFC3EE
:101AD500227F2B1216E312050BE4F51AF51B051BE5
:101AE500E51B7002051AE51BB410F3E51AB427EEE1
:091AF500AE14AF15121AFED32243
:101AFE008E1C8F1D12040D8E838F82E4F58073224F
:10008C000201F4E493A3F8E493A34003F68001F295
:10009C0008DFF48029E493A3F85407240CC8C33375
:1000AC00C4540F4420C8834004F456800146F6DF44
:1000BC00E4800B0102040810204080900369E47E68
:1000CC00019360BCA3FF543F30E509541FFEE49339
:1000DC00A360010ECF54C025E060A840B8E493A300
:1000EC00FAE493A3F8E493A3C8C582C8CAC583CA2B
:1000FC00F0A3C8C582C8CAC583CADFE9DEE780BEE3
:01040C0000EF
:101B3C00BB010689828A83E0225002E722BBFE02A7
:091B4C00E32289828A83E49322DA
:101B5500BB010CE58229F582E5833AF583E0225045
:101B650006E92582F8E622BBFE06E92582F8E2228F
:0D1B7500E58229F582E5833AF583E49322A9
:101B8200BB010689828A83F0225002F722BBFE0142
:021B9200F3223C
:101B9400F8BB010DE58229F582E5833AF583E8F087
:101BA400225006E92582C8F622BBFE05E92582C833
:021BB400F2221B
:101BB600BC000BBE0029EF8DF084FFADF022E4CC13
:101BC600F875F008EF2FFFEE33FEEC33FCEE9DECDC
:101BD600984005FCEE9DFE0FD5F0E9E4CEFD22ED22
:101BE600F8F5F0EE8420D21CFEADF075F008EF2F6C
:101BF600FFED33FD4007985006D5F0F222C398FD5D
:051C06000FD5F0EA22F9
:101C0B00C2D5EC30E709B2D5E4C39DFDE49CFCEEF4
:101C1B0030E715B2D5E4C39FFFE49EFE121BB6C39B
:101C2B00E49DFDE49CFC8003121BB630D507C3E496
:061C3B009FFFE49EFE2263
:101C4100C5F0F8A3E028F0C5F0F8E582158270022E
:061C51001583E038F022CB
:101C5700A3F8E0C5F025F0F0E58215827002158340
:061C6700E0C838F0E8229D
:101C6D00BB010A89828A83F0E5F0A3F0225006F7C2
:0F1C7D0009A7F01922BBFE06F3E5F009F31922BF
:101C8C00FAE6FB0808E6F925F0F618E6CA3AF62259
:101C9C00FAE6FB0808E625F0F9F618E63AFAF62219
:091CAC00E0FBA3E0FAA3E0F92239
:091CB500EBF0A3EAF0A3E9F02230
:101CBE00BB010DE58229F582E5833AF583021CAC62
:101CCE005007E92582F8021CEEBBFE07E92582F8D3
:101CDE00021CF7E58229F582E5833AF583021D00A1
:091CEE00E6FB08E6FA08E6F9221B
:091CF700E2FB08E2FA08E2F9221E
:0C1D0000E493FB740193FA740293F9223F
:00000001FF
