:101676002564004C45534F206C6162286329203253
:1016860030303700004C45534F206C61626F7261F9
:10169600746F72792028632920323030370A446506
:1016A6006D6F20746573742070726F6772616D0A56
:1016B6000A00205465787420202000204D75736937
:1016C600632020004144432043483A002025342E1D
:1016D6003066206D56004F31204C38204320472E6F
:1016E600204C31362047204C3820412E204C3136B4
:1016F6002041204C382042204C342041204C3820B8
:10170600470000000000000000000000000000008C
:10171600000000000000004C3220472E204C3820EC
:101726004320472E204C31362047204C3820412E6E
:10173600204C31362041204C382042204C34204168
:10174600204C382047000000000000000000000088
:1017560000000000000000004C3220472E204C38CC
:10176600204520432E204C31362043204C3820443F
:101776002E204C31362043204C3820452D204C3429
:101786002044204C382043000000000000000000E8
:101796000000000000000000004C3220432E204CC8
:1017A6003136203C46204623204C3820472E204CFC
:1017B60031362047204C3820412E204C31362041EE
:1017C600204C38204200000000000000000000000D
:1017D600000000000000000000004C342041204CB6
:1017E600382047204C322047204C38203C47203EAA
:1017F600432E204C31362045204C3820462E204C96
:1018060031362045204C3820462E204C3136204596
:1018160000000000000000000000004C31362046A9
:101826002047204C382047204C342047204C382075
:10183600462E204C31362045204C3820462E204C52
:1018460031362045204C342046204C382045204354
:10185600204C312043000000000000000103050673
:06186600080A0B0C01034F
:0A24E00002140000011700011600AD
:061AFC00D2B77F017E005D
:101B0200752A00752B01E5D75403F52CE4FCFD7B07
:101B12008D7A06F9F812067BA92CA8011207B78F55
:101B2200308E2F8D2E8C2DE47FFF7EFFFDFCAB309F
:101B3200AA2FA92EA82DD31207A64049E4FBFA79B1
:101B420001F8AF30AE2FAD2EAC2D120706EF2401F7
:101B5200F52BE43EF52AAF30AE2FAD2EAC2DC004EE
:101B6200C005C006C007FEAF2BE4F8F9AA06AB0712
:101B7200D007D006D005D0041207068F308E2F8DE5
:101B82002E8C2D8006752A00752B01E4FFFEFDFCCC
:101B9200AB30AA2FA92EA82DC31207A66056C3E404
:101BA2009530F530E4952FF52F7401952EF52EE43E
:101BB200952DF52DE4FB7A01F9F8AF30AE2FAD2E5D
:101BC200AC2D120706AB07AA06E530FFE4FEC28C75
:101BD200E58954F004F589E52B152BAC2A70021522
:101BE2002A4C600D8B8C8F8AD28C308DFDC28D80F9
:041BF200E65389F03D
:011BF60022CC
:1023DF008D29C2B5C2B68FA0121AFCC2B7AF297E23
:0423EF0000021B02CB
:0420FC007D017F01E2
:042100008F278D2870
:102104007F80E527C39401402EE527D39408502708
:10211400E528C394014020E528D394025019E5280A
:10212400B4020474402FFFE527142FFF7D0112230E
:07213400DF85270B85280C55
:01213B002281
:1021EF008F26E50BD394084016750B01050CE50CF3
:1021FF00D394024003750C01AD0CAF0B12210005F7
:10220F000BD2B5C2B68526A0121AFCC2B77F017ECB
:04221F0000021B029C
:0622B8007B017A007908A9
:0622BE008B228A23892413
:1022C400E4F525AB22AA23A924852582758300126F
:1022D4000594FF600EE525C394FF50071221EF0516
:0322E4002580E072
:0122E70022D4
:0E248F007D327F011223DF750B01750C0122D7
:0E249D007D327F021223DF750B01750C0122C8
:02241900AE070C
:10241B007F0CEE60020F0FED60010F7D010223DFD9
:102034007FC87E00121B027D297F301223DF7D01C1
:102044007F301223DF7D017F301223DF7D017F3C4F
:102054001223DF7D017F141223DF7D017F0612230B
:10206400DF7D017F0C1223DF1220FC7D017F011232
:0520740023DF02249DA2
:0E24AB007D017F011223DF7D017F080223DF08
:02213C00AE07EC
:10213E00EEC4540FFFC39400400CEFD39409500625
:10214E0074302FFF800474412FFFEE540FF522C31D
:10215E009400400BE522D39409500474308002742D
:0D216E00412522F5221221EFAF220221EFC0
:101F5600E4F590D286D285C2847F01AE071FEE706B
:101F6600FA2090037F01222091037F04222092030E
:101F76007F07222093037F2A22E4F590D286C2852A
:101F8600D2847F01AE071FEE70FA2090037F0222F3
:101F96002091037F05222092037F08222093037F4E
:101FA6000022E4F590C286D285D2847F01AE071F57
:101FB600EE70FA2090037F03222091037F062220F1
:0D1FC60092037F09222093037F23227F4E88
:011FD30022EB
:0C24D400121F56BF4E037F00227F012222
:0824FF00121F56EF644E60F855
:0125070022B1
:0924EB0092EFD2ED1224F4C2EDCF
:0124F40022C5
:10243D00D2EED2EFD2ED1224F4C2EF1224F4C2ED9B
:01244D00226C
:1023F300D2EEC2EFD2ED1224F4D2EF1224F4C2EDE6
:03240300C2EE2204
:1022E800D2EEE4FEC3EE648094885011EF30E7022A
:1022F8008001C31224EB0EEF25E0FF80E7C2EED287
:0C230800ED1224F4A2EC9200C2EDA20041
:0123140022A6
:10231500E4FEC2EEC2EDFDEE25E0FED2ED1224F4A0
:10232500A2ECE4334206C2ED1224F40DBD08E8D256
:0B233500EEEF24FF1224EBC2EEAF0617
:01234000227A
:1021BA00E5D75403FEC374049EFE7401A806088082
:1021CA0002C333D8FCF9EF89F0A4FFE4FEE9FDEF7E
:1021DA002DFDE433FCEEC39DEC6480F874809850C6
:0421EA00030E80E977
:0121EE0022CE
:1023AC00C2B47F1D1221BAD2B47F031221BAA2B4D7
:0A23BC00E433FB7F191221BAAF03CE
:0123C60022F4
:0F247000C2B4D2B4E4FF0FBF03FCA2B4E433FF45
:01247F00223A
:0F248000C2B4BF0102D2B47F051221BAD2B42276
:10236800E4FBFA122470EF600D7401A802088002E1
:10237800C333D8FC42037F061221BA0ABA08E4AF75
:012388000351
:012389002231
:02238A008F2C96
:10238C00E4FBE52CA803088003A2E713D8FBFA535F
:10239C000201AF021224800BBB08E77F050221BAB1
:0D24C7001223AC7FCC12238A7F4402238AAB
:102223001223AC7FCC12238A7FBE12238A90000034
:10223300122368AE8274222EF8A607A3E5826409EE
:10224300458370ECAF23EF7F00FEEF2522FFE43ED2
:01225300FE8C
:012254002267
:0A186C008E228F238B248A25892603
:10187600E4F527E52230E704742D8008AB24AA2579
:10188600A926742B1205C1E523540FF529E522C4B8
:10189600F854F0C8E523C4540F48752200547FF568
:1018A60023E4F528E52345226025AE22AF237C00FC
:1018B6007D0A120607742A2528F8A605AE22AF234C
:1018C6007C007D0A1206078E228F23052880D5E428
:1018D600F527E527C395285026742A2527F8E624F8
:1018E60030FFE527FDE528C39DFDE49400AB24AA5F
:1018F60025A9268D82F583EF1205D3052780D3858A
:101906002882758300A3AB24AA25A926742E120566
:10191600D3AF297E007C037DE81205F5EEC4F854AA
:10192600F0C868F522EFC4540F48F523E52804F5FE
:1019360029E4F528F528AE22AF237C007D0A12069D
:1019460007742A2528F8A605AE22AF237C007D0A57
:101956001206078E228F230528E528B403D8E4F55E
:1019660027742A2527F8E62430FFE5292403FDE419
:1019760033FCE527FBC3ED9BFDEC9400AB24AA25C5
:10198600A9268D82F583EF1205D30527E527B40333
:10199600D0E529252804F527E527C394085015AB7B
:1019A60024AA25A92685278275830074201205D3CB
:1019B600052780E4AB24AA25A926900008E40205A1
:0119C600D34D
:081CDD008E2B8F2C8C2D8D2E17
:101CE500E5D75403F52FC3E52C9496E52B940040D6
:101CF5000BD3E52C9498E52B943A40037F0022C33F
:101D0500E52E9401E52D940050037F0022AE2BAF04
:101D15002CE4FCF8F9AA06AB07FFFE7D8012070646
:101D2500A92FA8011207B78F338E328D318C30E47D
:101D35007FFF7EFFFDFCAB33AA32A931A830D31259
:101D450007A640037F0022C374FF9533F53374FF64
:101D55009532F532E49531F531E49530F530AF3310
:101D6500AE32AD31FC78081207B78F0D85330EAE54
:101D75002DAF2EE4FCFDF8F9AA06AB07AE2BAF2C70
:101D850012067BE47BF47A01F9F81207068F138EAD
:101D9500128D118C10D2AB438910758DFF758BFF99
:071DA500D28E750A017F01D7
:011DAC002214
:10244E00C2AB53890FE4F513F512F511F510F50A29
:01245E00225B
:1023C700121CDDEF700122AF13AE12AD11AC10EC91
:0723D7004D4E4F70F27F0034
:0123DE0022DC
:03001B000220BB05
:1020BB00C0E0C0D075D000C000C004C005C006C0D1
:1020CB0007B2B3781074FF120806EC4D4E4F600A3E
:1020DB00850D8D850E8BD28E8008C2AB53890F7503
:1020EB000A00D007D006D005D004D000D0D0D0E065
:0120FB0032B2
:10217B008F22E50A600312244EE522D3940040120D
:10218B00E522D39408500BE52290186193FD7F0153
:10219B008010E522700375220AE52290186193FDE9
:0F21AB007F027E00121ED37DB87C0B121CDD223A
:101FD400EF120859201541201A421FF7431FFC44F1
:101FE400200145200646200B47201048201F5000A2
:101FF4000020227529018026752903802175290571
:10200400801C7529068017752908801275290C8093
:102014000D75290A800875290B8003E4F529ED2440
:0F202400D3600824027006052980021529AF2910
:01203300228A
:101ED3008E2B8F2C8D2DE52D7003FEFF227F007E30
:101EE300007D007C401219FBC004C005C006C0077A
:101EF300AC2DE41202C6A804A905AA06AB07E4FFA9
:101F0300FE7D207C41120021E4FBFA7940784112E6
:101F1300021FC004C005C006C007AC2BAD2CEC12D9
:101F230002C1E4FBFA798078BF120025D003D00206
:101F3300D001D000120021D003D002D001D0001272
:101F43000116121DE5E4FBFA79DC7843120116123F
:031F530002FA226D
:102255008A298B2AA907AF05AE04E9602114540326
:10226500FDE58054F004FCA805088002C333D8FCC2
:10227500F580AD01121ED3AD2AAC290223C75380C8
:02228500F02245
:10207900E5262401FFE433FEE5242FF582E5233E1E
:07208900F583E493FFE4FD81
:102090008F2BED6004F52C8003E4F52CE4F52E7510
:1020A00031FF753216753376F5347535007536297E
:0A20B000FB7A00792B121100AF2A11
:0120BA002203
:0413D1008E238F24B4
:1013D500E4F525F527F528AA06A9077BFF120006DF
:1013E500EF4E7003021675E4F526AA23A9247BFFA8
:1013F500120006C3E5269FEE6480F87480984003CA
:10140500021672E50F7003021672E5242526F58291
:10141500E43523F583E49324CD70030214F724FD0A
:1014250070030214FF24FB70030216751460362442
:10143500FE602524FD24F8400302150724FD6032D3
:1014450024FC700302150704600302166D1220794F
:101455007514008F150214F00515E51570020514B5
:1014650005260213EFE5151515700215140526025C
:1014750013EFAA23A9247BFF120006E5262402FD0B
:10148500E433FCC3ED9FEE6480F8EC64809850561D
:10149500E5242DF582E5233CF583E493FFC36480C1
:1014A50094B04042D3EF648094B9503AE526FD7C70
:1014B500002401FFEC33FEE5242FF582E5233EF5FC
:1014C50083E493FFED2402FDEC33FCE5242DF58246
:1014D500E5233CF583E493FD1220908F17740325D3
:1014E50026F5260213EF1220798F17052605260209
:1014F50013EF75160305260213EF7516060526026A
:1015050013EFAA23A9247BFF120006E5262401FD7B
:10151500E433FCC3ED9FEE6480F8EC648098504999
:10152500E5242DF582E5233CF583E493FF642360F0
:101535000AEF642B6005EF642D702EE5242526F552
:1015450082E43523F583E493FFE5262401FDE433A6
:10155500FCE5242DF582E5233CF583E493FD121F7C
:10156500D48F25052605268017E5242526F582E452
:101575003523F583E493FFE4FD121FD48F2505265B
:10158500E509AE087803C333CE33CED8F9FFAD17DE
:101595007C001206078E278F28AA23A9247BFF1219
:1015A5000006E5262401FDE433FCC3ED9FEE6480CF
:1015B500F8EC6480985043E5242526F582E435232C
:1015C500F583E493B42E33E5242DF582E5233CF52C
:1015D50083E493B42E24AE27AF287C007D03120547
:1015E500F5EF7802CEC313CE13D8F92528F528EEEA
:1015F5003527F527052605268041AA23A9247BFF43
:10160500120006C3E5269FEE6480F8748098502B7F
:10161500E5242526F582E43523F583E493B42E1BD2
:10162500AC27AD28E41202C1E4FBFA79C0783F1279
:1016350001161202FA8E278F280526E516D3940087
:101645004016E52825E0FFE52733FE7C007D0312E3
:1016550006078E278F281516AB28AA27AD15AC14BB
:10166500AF251222550213EF05260213EF5380F022
:011675002252
:10228700750F017508007509FAE4F522E50F601D61
:1022970075F041E522A424DCF582E5F03416AF821F
:1022A700FE1213D10522E522C3940640DFE4F50FA1
:0122B7002204
:030003000224B91B
:0E24B900C0E012244E750F0030B2FDD0E032AC
:10242B00D2B77F647E00121B02C2B77F647E0002AC
:02243B001B0282
:100D0600E490001AF090001EF0F50FF50A53D7F89C
:100D160043AF81F580D2AF1224C7C2FDD2EB75EF87
:100D26008C1220347BFF7A1679791222BEE4900069
:100D36001EF090001EE0FFC394075058EF75F006B2
:100D460084AFF0EFC39400401EEFD394035018C352
:100D560074039FFFE58054F004FEA807088002C3D1
:100D660033D8FCF580801E90001EE075F00684E501
:100D7600F024FDFFE58054F004FEA807088002C3B6
:100D860033D8FCF5807FE87E03121B0290001EE03C
:100D960004F0809E5380F07D967C007FB87E011221
:100DA60023C77F107E27121B0212248FE5D7540318
:100DB600FFC374869FF59E759D2D7598527BFF7AAD
:100DC60016798B1208F9E4900020F090001FF0903D
:100DD600001FE0FFC39409501574112FF582E43407
:100DE60000F5837420F090001FE004F080E190008D
:100DF60020E06003020E8112243D7FA01222E87FCC
:100E0600021222E812243D7FA11222E8E4FF1223F7
:100E16001590001DEFF0E4FF12231590001CEFF073
:100E26007F0112231590001BEFF01223F31220FC12
:100E360090001BE0FF12213C7F3A1221EF90001C2C
:100E4600E0FF12213C7F3A1221EF90001DE0FF12D5
:100E5600213C122223900000EEF0A3EFF01224C7EB
:100E6600900000E0FEA3E0FF7B017A0079081218EB
:100E76006C7D027F011221001222B8121F569000CB
:100E86001EEFF0BF4E0AE50A600612244E5380F0AC
:100E960090001EE0FFC394004019EFD3940950134D
:100EA600E50A700F12217BE58054F0FF90001EE0EA
:100EB6002FF58090001EE0644E60769000207450FE
:100EC600F090001F7401F090001FE0FF2411F582DE
:100ED600E43400F583E0FE74102FF582E43400F567
:100EE60083EEF090001FE004F0E0B409DA90001EF3
:100EF600E0FFC39400400BEFD394095005EF243074
:100F0600800490001EE0900018F0E4900019F012A2
:100F160020FC7BFF7A1679B81222BE7D027F011271
:100F260021007B017A0079111222BE1224D4EF70BF
:100F3600FAD28720872190001F7464F090001FE08A
:100F4600FF14F0EF70F620870EE50A700A7D64FC48
:100F56007FE87E03121CDDD2B220B21AE50F7016AE
:100F660030B2FD12248F7BFF7A1679C11222BED2CF
:100F7600A8122287C2A812242B90001F7404F09096
:100F8600001FE0FFD3940640030210408FD8D2DC46
:100F960020DCFD12242BE5D9C3940450030210373C
:100FA600900020743CF0E5DA540FFF900002E4F064
:100FB600A3EFF0E0F8E4F0E8900002F0AFD9A3E088
:100FC6002FF0900002E03400F0E0FCA3E0FDE41214
:100FD60002C17B007A40799C783F1201169000048A
:100FE6001208241220FC7BFF7A1679CA1222BE90C0
:100FF600001FE02430FF1221EF7D027F0112210045
:101006007525FF7526167527D2900004E0FCA3E02F
:10101600FDA3E0FEA3E0F52B8E2A8D298C287B010B
:101026007A0079081208F37D027F0112210012224C
:10103600B890001FE004F0020F85900020E07003D6
:10104600020DF47FC87E00121B02900020E014F00F
:10105600E06003020DF490001FF090001FE0FFC354
:1010660094094003020DF474112FF582E43400F55F
:0C107600837420F090001FE004F080DE86
:10001E00020366E86480F8E933E83360110460F0A7
:10002E00ED33EC337009E8FCE9FDEAFEEBFF220448
:10003E0060DED3EB9FEA9EE99DE8C2E78CF0C2F743
:10004E0095F0400CE8CCF8E9CDF9EACEFAEBCFFB0F
:10005E0012033185D0F05804700320D5B3E8047034
:10006E00075002B2D502037092D5EC0460F7E4CCCF
:10007E00C0E0C398F8603B94186008400DD0E0FBD8
:10008E00020348E4FBFAC9FC8028E830E406E4C920
:10009E00FBE4CAFCE830E305E4C9CACBFCE854072C
:1000AE006010F8C3E913F9EA13FAEB13FBEC13FC37
:1000BE00D8F130F52FC3E49CFCEF9BFFEE9AFEEDDA
:1000CE0099FDD0E0FBEF4E4D4C701222DB03020384
:1000DE006DEC2CFCEF33FFEE33FEED33FDED30E730
:1000EE00EB020348EF2BFFEE3AFEED39FDD0E0FBBD
:1000FE0050130BBB0003020370ED13FDEE13FEEF66
:08010E0013FFEC13FC0203488F
:10011600EC4D6011E8497017ED33EC3304600DE4E3
:10012600FCFFFEFD22E933E8330470F80203661291
:10013600033158046009E4CC248150062850090292
:10014600037028400302036DC0E0EB4A7044B98097
:1001560006D0E0FB02035CEF4E701CBD8008EBFF8F
:10016600EAFEE9FD80EBE98DF0A4FEE5F00201FF71
:10017600E9CDF9EAFEEBFFEF89F0A4FCE5F0CE89C4
:10018600F0A42EFFE435F0CD89F0A42DFEE435F081
:100196008067EF4E7005BD80D780C3EF8BF0A4ACAF
:1001A600F0EE8BF0A42CFCE435F0F8EF8AF0A42CEA
:1001B600E5F038FCE433CB8DF0A42CFCE5F03BF8FD
:1001C600EE8AF0A42CFCE5F038F8E433CF89F0A4ED
:1001D6002CFCE5F038CF3400CE89F0A42FFFE5F0F3
:1001E6003EFEE433C98DF0A42EFEE5F039CD8AF04B
:1001F600A42FFFE5F03EFEE43DFD33D0E0FB5007C3
:100206000BBB000F020370EC2CFCEF33FFEE33FE4A
:06021600ED33FD02034878
:10021C00020370EC5D046005E85904700302036688
:10022C00120331580460F6EC4860F2EC7004FDFEE9
:10023C00FF22C860DB2481C85009C39860025006B5
:10024C0002036D9850CAF582E9294B4A7005AB82BE
:10025C0002035C75F0007C1A7880C3EF9BEE9AED7C
:10026C0099400DC3EF9BFFEE9AFEED99FDE842F02D
:10027C00DC23ACF0D0E0FFD0E0FED0E0FDAB822080
:10028C00E7101BEB60BAEC2CFCEF33FFEE33FEED0A
:10029C0033FD020348E803F830E705C0F075F000C1
:1002AC00EF2FFFEE33FEED33FD40B830E7C280AAEE
:1002BC0075F020800E75F010800575F0087D007EBD
:1002CC00007F003392D530D503120798EC334010E1
:1002DC00EF33FFEE33FEED33FDEC33FCD5F0ED22C6
:0E02EC00E5F0247EA2D513CC92E7CDCEFF2202
:1002FA00EDD2E7CD33EC3392D524814006E4FFFEFC
:10030A00FDFC22FCE4CFCECDCC24E0501174FF805A
:10031A00EDC3CC13CCCD13CDCE13CECF13CF0470F7
:07032A00F030D5DE02079858
:10089700E5392425F8E6053922782230070278253C
:1008A700E475F00112083902057B2000EB7F2ED298
:1008B700008018EF540F2490D43440D4FF30040B39
:1008C700EF24BFB41A0050032461FFE53A60021514
:1008D7003A053DE53D7002053C30070D7822E47589
:1008E700F001120839EF0205C10223417403D20750
:1008F7008003E4C207F5398B228A238924E4F53A79
:10090700F53CF53DE53A60077F201208D280F57582
:100917003BFFC201C200C202C203C205C206C2082F
:100927001208A0FF700D3007057F001208E3AF3DE6
:10093700AE3C22B4255FC2D5C2041208A0FF24D062
:10094700B40A00501A75F00A783A30D50508B6FF90
:100957000106C6A426F620D5047002D20380D92446
:10096700CFB41A00EF5004C2E5D204020BD0D20173
:1009770080C6D20080C0D20280BCD2D580BAD20550
:1009870080B47F201208D22002077401B53A0040D4
:10099700F1120897FF1208D202090BD208D206807B
:1009A70095120897FB120897FA120897F94A4B70A5
:1009B7000679C77A0C7BFF20022EE53A602A7E0073
:1009C7008E8275830012059460060EEE653B70F00B
:1009D700C2D5EBC0E0EAC0E0E9C0E0EE120C30D0CF
:1009E700E0F9D0E0FAD0E0FB12057BFF60AAEBC08C
:1009F700E0EAC0E0E9C0E01208D2D0E02401F9D073
:100A0700E03400FAD0E0FBE53B0460DCD53BD9805D
:100A170087D20280A2120C1360F7E53B7001041223
:100A2700037BA93B600DE53B600914F53B120CBA4B
:100A3700EF60F3EA30E702F404C3995077EAF4254C
:100A47003B0430E701E404F53B800D120C1360C151
:100A5700EA053B253B12037BEA7838F630E701E4E9
:100A6700253B04D53B0420050114120C30E4C0E0FB
:100A7700120CBA7838E6601320E70714F61208BAA2
:100A8700802204F6D0E014C0E07F001208BAE53BEC
:100A970060071208B1153B800B3005031208B1D06F
:100AA700E002090BD0E00480C5120C1360A0E53BFF
:100AB7000412037B7838EAF6E53B2005026001045F
:050AC7002404120C30B4
:100ACC0074FF04C0E0120CBA1208BAE53B20050210
:100ADC0060031208B1D0E0B53BE87F451208C4783A
:100AEC0038E67F2B30E7047F2DF404C0E01208D2E7
:100AFC00D0E075F00A84C0F01208BBD0E01208BB3D
:100B0C0002090B791080027908C206C2088008D24B
:100B1C00D5790A8004790AC2D5E53B047002F53B0D
:100B2C00E4FAFDFEFF120897FC7B08200113120863
:100B3C0097FD7B1030000A120897FE120897FF7B76
:100B4C0020EC3382D592D55013C3E43000069FFFBE
:100B5C00E49EFEE42001039DFDE49CFCE4CBF8C282
:100B6C0001EC700CCFCECDCCE824F8F870F38017E4
:100B7C00C3EF33FFEE33FEED33FDEC33FCEB33FB15
:100B8C00994002FB0FD8E9EB300105F8D0E0C448DE
:100B9C00B201C0E00AEC4D4E4F78207B0070C2EAE7
:100BAC00B53B0040BCC0E0120C32D0F0D0E02001CC
:100BBC0004C4C0E0C4B201C0F01208BBD0F0D5F040
:100BCC00EB02090B12085909A8530B0F5809794C61
:100BDC000975420B134F0B1B440B1B49098E430B1E
:100BEC0021550A52460AB0450A1C470CE750097DAC
:100BFC002D09812E09A42B09852309A2200CD02AAA
:100C0C00093D480000099CE53BB4FF03753B061207
:100C1C000897FC120897FD120897FE120897FF78A8
:100C2C00310203AA790AA2D5200314300509B910A0
:100C3C00020404B9080104A2D520060250010420C4
:100C4C0002689202B53A005034C0E07F203003199C
:100C5C007F30A20272067205500F120C89C202C2BA
:100C6C0006C205C2087F30800F300503E9C0E012D0
:100C7C0008D2300503D0E0F9D0E0B53ACC300517F6
:100C8C007F30B9100C1208D27F583004077F78805F
:100C9C0003B908031208D23002057F2D0208D27F57
:100CAC00202008F87F2B2006F322920280CF7F00B1
:100CBC00B4070050052431F8E6FF22286E756C6CE1
:100CCC002900D2011208973001F8C201783A30D5C8
:100CDC000108F602093D2D50434958120897240388
:100CEC00B405004001E4900CE2931208C3743A126C
:0A0CFC0008C3D203753A04020B0F7F
:10108200E54330030104F823282431F822782E3076
:1010920003027831E475F00112083902057B60EC35
:1010A200C5477002154614C547200304FF022508F0
:1010B200782E74FFF5F0020849FF022406E5446029
:1010C20006D544037F002220030F12245FEF60083D
:1010D2000547E5477002054622782E1208301205B0
:1010E2007BFF60E9782EE475F00112083980DE1288
:1010F20010C9EFC0E01210BBD0E040F380A0D203D1
:101102008002C2038B2E8A2F8930E4F545F543F520
:1011120046F547754400C202C200C201C204121061
:101122008FFF7005AF457E0022B4253012108FFF6D
:1011320024D0B40A00500C75F00AC544A42544F525
:101142004480E924CFB41A00EF5002C2E502139D95
:10115200D20180D8D20080D4D20480D0EF1210BB4A
:1011620050081210F1EF600E80A9EFC0E01210C912
:10117200D0E06F609EEF60741210A080A71210C9B9
:10118200EF6069E5447007054480031210C9EF60FF
:101192001420040E121082E475F001120839EF12C5
:1011A20005C1D544E62004040543054580BA121062
:1011B200BFEFC0E01210BBD0E050041210A0E4FF59
:1011C20020040E121082E475F001120839EF1205A4
:1011D200C1EF70DA20040405430545808BE54460C5
:1011E2000205441210F11210BFEF70C6300304E47E
:1011F2001210A0E54560030211267EFF7FFF22E563
:1012020044600205441210F1D206D2051210BFEF5B
:1012120030060260D7C0E01210A0D0E0AC48AD4961
:10122200AE4AAF4B121C0A8C488D498E4A8F4B50E6
:10123200071210C9C20580D42004102005020545FA
:0812420012108212083005436E
:10124A001207CA021115D0E0809A7900800A791033
:10125A00800679088002790AD205E54460020544CD
:10126A00E9C0E01210F1EF60DD1210C9BF2D04D2FF
:10127A00028003BF2B091210F1EF60CA1210BFD00F
:10128A00E0B40A028033B40802802EBF302770020D
:10129A007408C205C0E01210BFD0E0BF7802800314
:1012AA00BF58160544D544028007D54404D20580A8
:1012BA000B741080197002740ABF000AEFF8E4FC7C
:1012CA00FDFEFF021350C0E0EF1210A0D0E0F9E4D7
:1012DA00FCFDFEFFE9C0E0ECC0E0EDC0E0EEC0E0DE
:1012EA00EFC0E01210BFEFF8D0E0FFD0E0FED0E090
:1012FA00FDD0E0FCD0F0E8604DB461004007B47B5B
:10130A00005002C2E524D0503DFA24F6500724F9D1
:10131A005034240AFAEAB5F000502BCFA9F0A42FD2
:10132A00FF92D5E9C5F0CEA4A2D53EFE92D5E9C575
:10133A00F0CDA4A2D53DFD92D5E9C5F0CCA4A2D5A5
:10134A003CFCC205808EE8C0E020042A200508057E
:10135A004530020312079812108212083005432002
:10136A00000B20010DEE8FF012065C80091207CAED
:10137A008004EF1205C1D0E01210A002111520045A
:10138A00101210821208300543E5468547F012060E
:10139A005C80E812085911DF5312585811564C1143
:1013AA005242112E48125C4F126044117F4312546C
:1013BA0049126055120146120145120147115A2A73
:0713CA0013884E0000115EC4
:101DAD0033DA929E35B16011377FE5FE3921848992
:101DBD003AAEC3FF3C1D955B3D6358473E75FDF044
:101DCD003F3172183F800000C2D5020370020366D6
:101DDD00BD80FA50F302036DED33EC330460F17BFB
:101DED003B7AAA79B8783F120116ED33EC3392D5D0
:101DFD00247B5011A2D570DB500BED448024045090
:101E0D0004A2D580CEEFFBEEFAEDF9ECF81202FA52
:101E1D00EFF582F404FC1202C6120025C082901D5B
:101E2D00AD74091204BCED33CC33D0F092D525F04E
:0A1E3D00A2D57001C313CC13FD22DF
:1019C7003E9248DA3ECCCCCD3F2AAAAB400000007D
:1019D7003F8000003F9837F03FB504F33FD744FC02
:1019E7003E3172173EB172173F0515913EDE5BD946
:1019F700D2008002C200EDD2E7F8CD33EC33047099
:101A07000BBD800592D502037002036640FBD31419
:101A170060F2F5F07C3FEE7A00C39496C8948B4051
:101A2700230AC89469C8941A401A0AC89468C894C3
:101A37001F40110AC8945AC89425400805F07A0037
:101A4700CDC2E7CDC0F08C2E8D2F8E308F31EA239B
:101A570023C0E024D7F582E43419F5831207F41282
:101A67000025ECC0E0EDC0E0EEC0E0EFC0E01207FB
:101A7700E4A82EA92FAA30AB31120021D0E0FBD069
:101A8700E0FAD0E0F9D0E0B2E7F812021F8C2E8D11
:101A97002F8E308F319019C774031204ADA82EA969
:101AA7002FAA30AB31120116D0E0600F24E3F58284
:101AB700E43419F5831207F41200258C2E8D2F8E2E
:101AC700308F31D0E0C3947FFDE49400FC1202C153
:101AD7007B187A727931783F120116A82EA92FAA9E
:101AE70030AB3112002530000B7BD97A5B79DE7879
:051AF7003E1201162261
:10033100E9D2E7C933E833F892D5EDD2E7CD33EC12
:0703410033FC5002B2D5228B
:10034800EC30E7100FBF000C0EBE00080DBD000416
:100358000BEB6014A2D5EB13FCED92E7FD2274FFC2
:10036800FCFDFEFF22E480F8A2D574FF13FC7D801B
:03037800E480EF2F
:10037B00F920E72824F950037907E4F42402FB1849
:10038B00DBFDE624FB5014E9600DE4F618E604F6F9
:0F039B00B40A08E4F6D9F57401F60A22C2D52295
:1003AA00ED33EC3392D5FA602AB4FF33EDC2E77B22
:1003BA00FF60067A0379CFE4227A0379D820D5043C
:1003CA007A0379D3224E614E002B494E46002D49BD
:1003DA004E4600E47A08F608DAFC7B00740722E845
:1003EA00C0E0ECC0E0EDC0E0EEC0E0EFC0E0EA75CE
:1003FA00F010A4CAABF075F04DA42BFBE435F0FC69
:10040A00EA2410FAEB34C5FBEC34D9FCEDC2E7FF61
:10041A0075F056A4F42411C5F0F434C58FF0A42A5B
:10042A00E5F03BE43CF620E71412053BD0E0FFD0B0
:10043A00E0FED0E0FDD0E0FC12021F8014F40412AA
:10044A00053BD0E0FFD0E0FED0E0FDD0E0FC120199
:10045A0016D0E0F8E6FAEDD2E7CD33EC332482FB8E
:10046A00E4C3CF33CFCE33CECD33CD33DBF37B07EB
:10047A0075F00A846004F6081B0AE5F0F6088FF0A6
:10048A00740AA4FFACF08EF0740AA42CFEACF050EF
:10049A00010C8DF0740AA42CFDE435F0F608DBDEBD
:0304AA00740722B2
:101BF700C207C208C209C20AF9E4F54CF54DFCFD5B
:101C0700FEFFE91006EA20090CB42D04D209D322FD
:101C1700B42B02D32224D0504794095041240A30D0
:101C27000A15F8854DF0740AA42872E74051C5F0EB
:101C3700704D85F04DD322D208C0E0E4FBFA79203D
:101C47007841120116ECF8EDF9EEFAEFFBD0E0FC63
:101C5700E41202C61200253007B4154CD322240A19
:101C6700200A20B4FE0720071AD207D32224EB60EC
:101C77000424E0700EA2099207D20AC209D322C334
:101C8700020366E4300A0BE54D300902F404A207AB
:101C970092093008EA254C20D2E5A2E7920A5002C1
:101CA700F404B4260050D8CCC0E0EDC0E0EEC0E0AC
:101CB700EFC0E0EC12053BD0E0FFD0E0FED0E0FD46
:101CC700D0E0FC200A05120116800312021F30091A
:061CD700031204FAC3220F
:1004AD00C0E0EFFBEEFAEDF9ECF8120116D0E0F535
:1004BD00F0EFFBEEFAEDF9ECF81207E4A3A3A3A31A
:1004CD00E8C0E0E9C0E0EAC0E0EBC0E0C0F0120136
:1004DD00161207F4A3A3A3A3120025D0F0D0E0FBBE
:0D04ED00D0E0FAD0E0F9D0E0F8D5F0D4224C
:1004FA00ED33EC33600A047003BD8004ECB2E7FC10
:01050A0022CE
:10050B003F8000004120000042C80000447A0000F8
:10051B00461C400047C35000497424004B1896807A
:10052B004CBEBC205A0E1BCA6753C21C749DC5AE71
:10053B00FB60065407601C2323120569EB543860DB
:10054B0009120555120564120116ECF8EDF9EEFAD5
:10055B00EFCB22EB12056480F1543803241C900579
:10056B000BFE93FC0EEE93FD0EEE930ECE93FF223D
:03000000021E4796
:0C1E4700787FE4F6D8FD75814D021E8EF8
:10057B00BB010689828A83E0225002E722BBFE027E
:09058B00E32289828A83E49322B1
:10059400BB010CE58229F582E5833AF583E022501C
:1005A40006E92582F8E622BBFE06E92582F8E22266
:0D05B400E58229F582E5833AF583E4932280
:1005C100BB010689828A83F0225002F722BBFE0119
:0205D100F32213
:1005D300F8BB010DE58229F582E5833AF583E8F05E
:1005E300225006E92582C8F622BBFE05E92582C80A
:0205F300F222F2
:1005F500EF8DF0A4A8F0CF8CF0A428CE8DF0A42E1A
:02060500FE22D3
:10060700BC000BBE0029EF8DF084FFADF022E4CCD7
:10061700F875F008EF2FFFEE33FEEC33FCEE9DECA0
:10062700984005FCEE9DFE0FD5F0E9E4CEFD22EDE6
:10063700F8F5F0EE8420D21CFEADF075F008EF2F30
:10064700FFED33FD4007985006D5F0F222C398FD21
:050657000FD5F0EA22BE
:10065C00BB010A89828A83F0E5F0A3F0225006F7E9
:0F066C0009A7F01922BBFE06F3E5F009F31922E6
:10067B00E88FF0A4CC8BF0A42CFCE98EF0A42CFC1E
:10068B008AF0EDA42CFCEA8EF0A4CDA8F08BF0A49C
:10069B002DCC3825F0FDE98FF0A42CCD35F0FCEBFB
:1006AB008EF0A4FEA9F0EB8FF0A4CFC5F02ECD39C0
:0F06BB00FEE43CFCEAA42DCE35F0FDE43CFC222D
:1006CA0075F008758200EF2FFFEE33FECD33CDCCE7
:1006DA0033CCC58233C5829BED9AEC99E58298406A
:1006EA000CF582EE9BFEED9AFDEC99FC0FD5F0D647
:1006FA00E4CEFBE4CDFAE4CCF9A88222B800C1B971
:10070A000059BA002DEC8BF084CFCECDFCE5F0CBAE
:10071A00F97818EF2FFFEE33FEED33FDEC33FCEBE7
:10072A0033FB10D703994004EB99FB0FD8E5E4F9A2
:10073A00FA227818EF2FFFEE33FEED33FDEC33FC8F
:10074A00C933C910D7059BE99A4007EC9BFCE99A83
:10075A00F90FD8E0E4C9FAE4CCFB2275F010EF2FC8
:10076A00FFEE33FEED33FDCC33CCC833C810D707C8
:10077A009BEC9AE899400AED9BFDEC9AFCE899F803
:0E078A000FD5F0DAE4CDFBE4CCFAE4C8F92296
:0E079800C3E49FFFE49EFEE49DFDE49CFC2272
:1007A600EB9FF5F0EA9E42F0E99D42F0E89C45F0A9
:0107B6002220
:1007B700E8600FECC313FCED13FDEE13FEEF13FF20
:0307C700D8F12244
:1007CA00BB010789828A830208245005E9F80208D6
:0A07DA007FBBFE05E9F802088B2240
:1007E400E493FC740193FD740293FE740393FF225B
:1007F400E493F8740193F9740293FA740393FB225B
:100804007401FF3395E0FEFDFC080808E6CF2FF6DF
:1008140018E6CE3EF618E6CD3DF618E6CC3CF622B8
:0C082400ECF0A3EDF0A3EEF0A3EFF02247
:09083000E6FB08E6FA08E6F922ED
:10083900FAE6FB0808E6F925F0F618E6CA3AF622C0
:10084900FAE6FB0808E625F0F9F618E63AFAF62280
:10085900D083D082F8E4937012740193700DA3A32E
:1008690093F8740193F5828883E473740293686042
:06087900EFA3A3A380DF42
:10234100EFB40A07740D12234C740A309811A8993E
:10235100B8130CC2983098FDA899C298B811F630FC
:0723610099FDC299F59922D4
:10245F00100B0B1224F5BF0D027F0A022341AF1898
:01246F00224A
:052508008F18D20B2228
:10240600EFC394094005EF940E4003BF2003D38029
:0324160001C322DD
:10000600E4FFFE12057B600C0FEF70010E09E9702C
:05001600F20A80EF2258
:101E5300020D06E493A3F8E493A34003F68001F292
:101E630008DFF48029E493A3F85407240CC8C33390
:101E7300C4540F4420C8834004F456800146F6DF5F
:101E8300E4800B01020408102040809024E0E47EEB
:101E9300019360BCA3FF543F30E509541FFEE49354
:101EA300A360010ECF54C025E060A840B8E493A31B
:101EB300FAE493A3F8E493A3C8C582C8CAC583CA46
:101EC300F0A3C8C582C8CAC583CADFE9DEE780BEFE
:0124EA0000F1
:0C087F00ECF608EDF608EEF608EFF622A5
:0C088B00ECF208EDF208EEF208EFF222A9
:0A24F5003098FDAF99C2987E0022D6
:00000001FF
