:03210000022103B6
:0C210300787FE4F6D8FD75815C02214A6B
:10235B00202020202053444B2D312E3100323030A1
:0E236B003120284329204C4D54204C7464002E
:10218F0090702C12391AE4FFC20612244690309731
:10219F00E493FE740193AA06F97BFF7D101224A02D
:1021AF00E4FFD20612244690702C1239117D1012C2
:0321BF0024A02237
:1021C200781C7601781CE6FD60177F077E001223DB
:1021D2007F7F327E0012377F781CE6FF25E0F68093
:1021E200E3781C7680781CE6FD60177F077E00127C
:1021F200237F7F327E0012377F781CE6FFC313F6FF
:0B22020080E37F077E00E4FD12237FD5
:01220D0022AE
:10220E007BFF7A23795B12246CE4FFD206122446FC
:10221E007BFF7A23796812246CC2A9E47819F60838
:10222E00F67F047E007D3C12237F7F027E001237F4
:10223E006E7F047E007D2012237F7F027E00123788
:10224E006E781A06E670021806C3781AE694F41829
:0D225E00E6940140CCD2A91221C212240343
:01226B002250
:10226C009030A9E493FE740193AA06F97BFF122423
:10227C006CE4FFD2061224469030ABE493FE74015A
:0A228C0093AA06F97BFF12246C22CE
:10229600E4F51012237912220E12261112240312CB
:1022A600226C7FD07E0712377FE4F510903099E4D8
:1022B60093FE740193AA06F97BFF7D0490701FE5D7
:1022C60010F0A37430F0A374BFF01231C88F10EF72
:1022D600146012146014146016240370CF12226C5A
:1022E6001231A980C7122D6180C212353680BD9089
:1022F600309BE493FE740193AA06F97BFF12246CCB
:1023060012319F50051231A9803C750F017F077E5F
:1023160000AD0F12237F7F327E0012377FE50F2537
:10232600E0F50F430F01E50FB4FFE2E50F60D17F43
:10233600077E00FD12237F7F327E0012377FE50F76
:1023460025E0F50F80E57F077E00E4FD12237F027E
:0423560022B280FE31
:01235A002260
:0623790012269BD2AF22E8
:10237F00AC84A2AFE433F9C2AF7584088F828E8329
:09238F00EDF08C84E924FF92AF0B
:012398002222
:10239900AD84E4FBA2AF33F9C2AF7584088F828E96
:0C23A90083E0FB8D84E924FF92AFAF03BA
:0123B5002205
:07259000C181011800C10028
:0523B600A206920122C5
:1023BB008F177F067E00E5174401FD12237F7F06F2
:1023CB007E00E51754FEFD12237F7F027E0012373D
:0223DB007F225F
:1023DD007F017E003005047D0280027D00ED440CFE
:1023ED00FD3006047C0180027C00ED4CFD12237F44
:0623FD007F081223BB2241
:102403007F017E007D0112237F7F081223BBE478C6
:0524130018F6C20022D2
:102418008F1530011A7818E6FFA20092061224469A
:10242800781806E6D36480948F4004E4F6B2007FFF
:0E243800017E00AD1512237F7F0C1223BB2204
:102446008F167F017E003006047D4080027D00E508
:10245600162D4480FD12237F7F081223BB7818A611
:0624660016A206920022FE
:06246C008B118A12891396
:10247200A2019205D2061223B6AB11AA12A9131217
:10248200379560127811E475F0011238F112379520
:0D249200FF12241880E3A20592061223B663
:01249F00221A
:0824A0008B118A1289138D14BF
:1024A800E514C394035022123795FF700302258F59
:1024B800122418AB11AA12A9139000011237AEFF0B
:1024C800700302258F1224182215141514E47819A4
:1024D800F6AB11AA12A9137819E6FEF582758300E6
:1024E8001237AEFF600EEEC3951450081224187808
:1024F800190680DD05140514AB11AA12A913781961
:10250800E6FFF5827583001237AE6003EF7010782E
:1025180019E606C39514506F7F2012241880F078AE
:1025280019E6FF7E002401FDEE33AB11AA12A913B0
:102538008D82F5831237AE600FEF2402FFEE338FE2
:1025480082F5831237AE7035AB11AA12A913781928
:10255800E6F5827583001237AE60127819E606F543
:10256800827583001237AEFF12241880DB7819E6D3
:1025780006C3951450117F2012241880F07F2E1264
:0725880024187F2E12241815
:01258F002229
:0B25FB007FA212276F4002D322C322F0
:0B2606007FA012276F4002D322C322E6
:1026110090309DE493FE740193AA06F97BFF122486
:102621006C1225FB501B9030A1E493FE740193AA18
:1026310006F97BFF12218F7FD07E0712377F12248C
:1026410003122606501B903087E493FE740193AA6F
:1026510006F97BFF12218F7FD07E0712377F12246C
:02266100032252
:10266300C0E0C0F0C083C082C0D0C000C001C002BF
:10267300C003C004C005C006C0071230C7D007D0CE
:1026830006D005D004D003D002D001D000D0D0D0E2
:0826930082D083D0F0D0E032C8
:10269B007F017C267D631226B85388EF5389F04364
:0D26AB008901E4F58CF58AD2A9438810223C
:1026B800EF75F008A42403FFE5F03420FE0FEFAA1D
:1026C8000670010E14F5828A837402F08F828E835D
:0526D800ECF0A3EDF0A1
:0126DD0022DA
:0D26DE00E4FFAE070FC3EE6480948240F568
:0126EB0022CC
:0226EC00AD0738
:1026EE00D2EEC2EDE4FCC3EC648094885018ED3059
:1026FE00E703D38001C392EFD2ED1226DEC2ED0CBA
:10270E00ED25E0FD80E0C2EED2ED1226DEA2EC92C7
:05271E0005C2EDA2055B
:012723002293
:10272400D2EED2EFD2ED1226DEC2EF1226DEC2EDD9
:012734002282
:10273500D2EEC2EDC2EFD2ED1226DED2EF1226DEC8
:03274500C2EE22BF
:0B274800AD07122724AF051226EC227B
:0E275300D2EEC2EDC2EFD2ED1226DEC2ED22B2
:0E276100D2EEC2EDD2EFD2ED1226DEC2ED2294
:10276F00D2EBEF54FEFF1227485005122735C32234
:05277F00122735D322F2
:10278400E4FDC2EEC2EDFCED25E0FDD2ED1226DE45
:0F279400A2ECE4334DFDC2ED0CECB408EAAF0546
:0127A3002213
:0D27A40090701CEDF0A3EAF0A3EBF0A90784
:1027B100D2EBE954FEF9FF1227485005122735D311
:1027C1002290701CE0FF1226EC5005122735D3220F
:1027D1001226DE1226DEE94401F9FF1227485005D0
:1027E100122735D3221226DE90701FE014602CE4EC
:1027F100FB90701FE014FFEBC39F501F122784A3AF
:10280100EFF0122753E0FF90701DE475F0011238CC
:10281100B085F082F583EFF00B80D612278490709B
:1028210020EFF0122761E0FF90701DE0FCA3E0F5BE
:09283100828C83EFF0122735C3FD
:01283A00227B
:02283B00A905ED
:10283D00D2EBEF54FEFF1227485005122735D32255
:10284D00AF011226EC5005122735D322E4F9907012
:10285D0025E0FFE9C39F50188B828A83E0FF122683
:10286D00EC5005122735D322090BBB00010A80DE7F
:04287D00122735C326
:012881002234
:012F2B0000A5
:1025970049700900003A00003A0000004970000045
:0825A700002E00002E000000D0
:10288200907015E0543FFF7B017A7079091233187A
:10289200907014E0FF7B017A70790C1233189070FB
:0D28A20013E0FF7B017A70790F12331822CA
:1028AF00907016E0543FFF7B017A70790012331855
:1028BF00907017E0541FFF7B017A70790312331861
:1028CF00907016E0FFC413135403FF7B017A7079E5
:0528DF0006123318226F
:1028E40090702112391A907024123911900001123B
:1028F40037AEFFC4135407FF907021123911EF1241
:1029040037DB907024123911123795543FFF12337C
:1029140009907021123911900001EF1237ED907077
:10292400241239119000011237AE541FFF123309DB
:10293400907021123911900002EF1237ED9070243B
:10294400123911123795FFC413135403FF907021E9
:0B295400123911900003EF1237ED2242
:10295F0090702112391A90702412391190000112BF
:10296F0037AEFF1232F59070241239119000031216
:10297F0037AEFEC4333354C04FFF9070211239115C
:10298F00EF1237DB9070241239119000021237AE1C
:10299F00FF1232F5907024123911123795FEC4339D
:1029AF0054E04FFF907021123911900001EF123750
:0229BF00ED2207
:1029C1007B017A70791390701C12391AE4FFC206E8
:1029D100122446903089E493FE740193AA06F97B90
:1029E100FF12246CD205D2061223DD90701B740AEB
:1029F100F0FFD2061224461231A9EF24DD70030242
:102A01002A9224F97003022AC024F8604924FC6048
:102A11002824FE605F24046003022AF490701BE006
:102A2100D394045003022AF4E024FDF090701DE4D5
:102A310075F00112389A022AF490701BE0C3940ACF
:102A41004003022AF4E02403F090701D74FFF5F0B6
:102A510012389A022AF490701C12391190701BE0FE
:102A6100D3940440047D3C80027D18123334122833
:102A710082022AF490701C12391190701BE0D394D9
:102A81000440047D3C80027D1812334C1228828060
:102A9100627FA07D017A707B129070257404F01220
:102AA100283B501B903087E493FE740193AA06F9EA
:102AB1007BFF12218F7FE87E0312377F122403C22E
:102AC10005C2061223DDE4FFC20612244690308BB4
:102AD100E493FE740193AA06F97BFF7D101224A0F2
:102AE1007F0DD2061224467BFF7A2F792B7D0312AC
:102AF10024A0227F03D2061224467B017A70790931
:102B010012246C90701BE0FFD2061224460229F8B1
:012B110022A1
:102B12007B017A70791690702412391A7A70791DB5
:102B22001228E412240390308DE493FE740193AAD8
:102B320006F97BFF12246CD205D2061223DD9070B7
:102B42001B740AF0907005742EF0E4FFD206122472
:102B52004690701DE075F0029030B11238E5E493B2
:102B6200FE740193AA06F97BFF12246C7F201224C3
:102B72001890701EE0FF7B017A70790012332D905D
:102B8200701FE0FF7B017A70790312332D90702061
:102B9200E0FF7B017A70790612332D7B017A70791E
:102BA2000012246C90701BE0FFD206122446907033
:102BB2001FE024FE601824FB600C24FE600824FE43
:102BC20060042407701E90701C741EF0801C9070AC
:102BD20020E0600890701C741CF0800E90701C74D1
:102BE2001DF0800690701C741FF01231A9EF24DDD5
:102BF2007003022D0224F97003022D4324F8603879
:102C020024FC602124FE7003022CA0240460030231
:102C12002B4C90701BE0D394015003022B4CE02408
:102C2200FDF0022B4C90701BE0C3940A4003022B70
:102C32004CE02403F0022B4C90701BE024FC60203B
:102C420024FD603824FD604924096003022B4C9066
:102C5200701DE004F0E075F00784E5F0F0022B4C03
:102C620090701EE004F090701CE0FF90701EE0D3A4
:102C72009F5003022B4C7401F0022B4C90701FE00A
:102C820004F0E0D3940C5003022B4C7401F0022B9D
:102C92004C907020E004F0E05403F0022B4C907052
:102CA2001BE024FC602424FD603724FD60452409D8
:102CB2006003022B4C90701DE070067406F0022B2C
:102CC2004C90701DE014F0022B4C90701EE014F03A
:102CD200E06003022B4C90701CE090701EF0022BFF
:102CE2004C90701FE014F0E06003022B4C740CF067
:102CF200022B4C907020E014F0E05403F0022B4CB5
:102D02007B017A70791D90702412391A7A707916C3
:102D120012295F7FA07D057A707B16907025740260
:102D2200F012283B501B903087E493FE740193AA63
:102D320006F97BFF12218F7FE87E0312377F122470
:102D420003C205C2061223DD12240390308FE493DE
:0E2D5200FE740193AA06F97BFF7D101224A0E7
:012D60002250
:102D610090700B743AF090700EF0E4907011F09046
:102D71007002742EF0E4907008F0A3F07FA0122787
:102D81006F50257FA0E4FD7A707B0990702504F0D7
:102D910012283B40137FA07D017A707B1290701F37
:102DA1007406F01227A45019903087E493FE740141
:102DB10093AA06F97BFF12218F7FE87E0312377FEA
:102DC10022E490701AF0903091E493FE740193AA7A
:102DD10006F97BFF7D0290701AE090701FF0A374DA
:102DE10030F0A374ADF01231C890701AEFF0E4FF27
:102DF100C20612244690701AE0147003022E7E243B
:102E0100027003022F2A1470BD90308BE493FE747C
:102E11000193AA06F97BFF7D101224A07FA07D01FA
:102E21007A707B1290701F7404F01227A4501990CD
:102E31003087E493FE740193AA06F97BFF12218F78
:102E41007FE87E0312377F221228827F03D2061287
:102E510024467B017A7079097D0B1224A012319FDF
:102E610050BA1231A9907019EFF0642A7003022D43
:102E7100C7907019E0B423A41229C1809F90308FAC
:102E8100E493FE740193AA06F97BFF7D101224A03E
:102E910012319F500B1231A9EF642A7003022DC722
:102EA1007FA07D057A707B1690701F7402F0122747
:102EB100A45019903087E493FE740193AA06F97B1C
:102EC100FF12218F7FE87E0312377F221228AF7F06
:102ED10002D206122446907017E0FFC413540775FE
:102EE100F0029030B11238E5E493FE740193AA0622
:102EF100F97BFF12246C7F201224187B017A7079F0
:102F01000012246C12319F50871231A9907019EF71
:102F1100F0642A7003022DC7907019E064236003E6
:092F2100022E91122B12022E91D6
:012F2A002284
:102F2C0043B3C7B7C4206320C0616361BCB8210040
:102F3C00A963BF2E20B37065BC2E3A203C3ED9DA73
:102F4C000020202020427065BCC73A00A963BF2E28
:102F5C0020E361BFC33A203C3ED9DA002020202078
:102F6C0020E061BF613A002DAB6163C32D004FB609
:102F7C00B8E361BDB8652E2E2E00A461B47079B78C
:102F8C00BA612E2E2E0020202020204FC1B8B2BABC
:102F9C0061002DA1BB61B3BD6F6520BC65BDC62DA5
:102FAC00004861B6BCB8BF6520BABB61B3B8C17983
:102FBC0000546563BFB8706FB361BDB8652E2E2E1B
:102FCC000043B26FB920BE61BCC7BFB8210043B388
:102FDC00C7B7C4206320454550524F4D21002020D7
:102FEC005465BCBE657061BF7970613A0043B3C76C
:102FFC00B7C4206320E361BFC0B8BA6FBC00202007
:10300C00D92D32203E2D3620232D7E002020DA2D86
:10301C0038203C2D34202A2D45736300A86FBA61EB
:10302C00B72F7963BF20B37065BCC700A86FBA61B6
:10303C00B72F7963BF20E361BF7900426300A8BD5D
:10304C000042BF00437000ABBF00A8BF0043B200FA
:10305C00A86FE363BA61B7BA6100AB6163C32FE0D9
:10306C0061BF61005465BCBE657061BF7970610061
:10307C0043B365BF6FE3B86FE3C3002F2C2F3C2F16
:10308C004D2F582F682F732F7A2F862F922F9E2F0C
:10309C00AD2FBD2FCD2FDA2F2C2FEA2FF9300A3080
:1030AC0018302830383047304A304D30503053309B
:0B30BC00563059305C30663070307CBC
:1025AF0011333134372A32353830333639234142FB
:1025BF00434400012100012200010800010900012C
:0225CF000A0000
:1030C700530903530803E509C39404400302316A13
:1030D700E4FFFEAD0904A805088002C333D8FCF459
:1030E700FD12237FE508C394045070E4FFFE12230A
:1030F70099EFFD7C0074107E00A808088005C33393
:10310700CE33CED8F9FFEE5CFEEF5D4E7046E50A92
:10311700146008047009750A01C322050A800BE5CB
:103127000AC394195004050AC3227822E6FFC36430
:10313700809490501DE50925E025E025082433F803
:10314700E6FE7821E62F540F2423F8A606782206F8
:10315700D322C322E4F50A050880890509E4F508A6
:043167000230CDC3A2
:01316B002241
:10316C00E4F512E4F5130513E513B402F97F047EBC
:10317C00007D3C12237FE4F5130513E513B402F92B
:10318C007F047E007D2012237F0512E512C39496E6
:02319C0040D120
:01319E00220E
:0A319F007822E66003D38001C3220A
:1031A9007822E660FBC2A97821E6540F2423F8E6C9
:0E31B900F511782106081612316CD2A9AF115B
:0131C70022E5
:0B31C80090701B12391A90701EEDF081
:1031D300122403C205C2061223DDE4907022F0908C
:1031E300701B123911907022E0FFF5827583001273
:1031F30037AE6008907022E004F080E3EFC3940FD1
:10320300500DC3740F9FFFC313FFC20612244690D1
:10321300701B1239117D0F1224A07F0FC2061224D6
:10322300467FD91224187F0FD2061224467FDA1262
:10323300241890701EE0FFA3E0FEC39F40047F00AC
:103243008002AF06907022EFF0E4FFD2061224460C
:10325300907020E0FEA3E0F5828E83C083C082904D
:103263007022E0D082D08375F0021238E5E493FE39
:10327300740193AA06F97BFF7D0F1224A01231A9D2
:10328300EF24DD606424F9605A24F6604224FE6072
:103293004624FE601C240670B0907022E0FF600498
:1032A30014FF800690701EE014FF907022EFF080F0
:1032B3009890701EE014FF907022E0FEC39F5005AB
:1032C300EE04FF80027F00907022EFF002324CE4A4
:1032D300907022F002324C90701EE014907022F035
:1032E30002324C90702274FFF0122403907022E09B
:0132F300FFDB
:0132F40022B7
:1032F500EF75F00A84FEC454F0FEEF75F00A84E51C
:04330500F04EFF2265
:0F330900EFC4540F75F00AA4FEEF540F2EFF22ED
:10331800EFC4540F24301237DBEF540F24309000E1
:05332800011237ED2247
:06332D001232F512331804
:013333002277
:10333400123795FF123309AE050FEF8EF084AFF00C
:073344001232F5EF1237DB36
:01334B00225F
:10334C00123795FF123309EF7005ED14FF80011F42
:0F335C00AE05EF8EF084AFF01232F5EF1237DBD3
:01336B00223F
:0425D100417018003D
:10336C00123604907018E054F9FEF0EF5403FD256A
:09337C00E04EF0EF6002D322C321
:013385002225
:06338600907018E0FF2228
:06338C008B0B8A0C890D79
:10339200907018E030E002D32212336C5002D32234
:1033A2007F33123676E4F50EAB0B7E00E50D250E6B
:1033B200F9EE350CFA123711050EE50EC3940840EA
:0433C200E712336C6F
:0133C60022E4
:0633C70090702C12391A6F
:1033CD00907018E030E002D32212336C5002D322F9
:1033DD007FCC1236767FBE1236767B017A70792FCE
:1033ED0012371190702FE0FFA3E4F0A3EFF07B01F3
:1033FD007A70792F12371190702FE0FEA3E04EFEF8
:10340D00A3E0FF907030EEF0A3EFF0FF7C007D1095
:10341D00123864907030EEF0A3EFF090702C1239EA
:0A342D0011EE8FF01238C612336C56
:013437002272
:10343800907018E030E002D32212336C5002D3228D
:103448007FCC1236761236BB907018E04401F07FBC
:10345800EE7E0212377F907018E054FEF01235E1CC
:0334680012336CB0
:01346B00223E
:1025D500015C0A014400C102C103C1041745303141
:1025E50032333435363738394142434445466162E2
:0525F50063646566004F
:0A346C008E118F128B138A1489153C
:10347600C205E4F516300216C3EE64809480500E41
:10348600C3E49FF512E49EF511D205751601AB1241
:10349600AA11EB4A6019EB4A6018AE02AF03785CDA
:1034A600E6FD7C0012380FAA06AB07051680E77505
:1034B6001601E5162515F515E43514F5143003093E
:1034C600AB13FAA915E41237DBE5124511603CE5AA
:1034D6001245116047785CE6FD7C00AE11AF121212
:1034E600380F8D1774452517F8E6FF781374FFF526
:1034F600F0123901EF1237DBAE11AF12785CE6FD40
:103506007C0012380F8E118F1280C47845E6FF7842
:103516001374FFF5F0123901EF1237DB30050E7820
:0F3526001374FFF5F0123901742D1237DBAF1655
:013535002273
:0635DB00EF432020200058
:1035360090702AE4F0A304F0785C760AD202D203F3
:103546001224039030A5E493FE740193AA06F97B36
:10355600FF12246C7F05D20612244690702AE0FEE4
:10356600A3E0FF7B017A70791912346C7B017A70C3
:10357600791912246C7BFF7A3579DB12246C1231AF
:103586009F500A1231A9BF2A04122403221234388A
:10359600501C9030A7E493FE740193AA06F97BFFB2
:1035A60012218F7FDC7E0512377F122403227B01D6
:1035B6007A70792A1233C7509B9030A7E493FE7431
:1035C6000193AA06F97BFF12218F7FDC7E05123755
:0435D6007F12240339
:0135DA0022CE
:1035E100AF84A2AF9205C2AF758408742090000425
:1035F100F0E4758202F08F84A20592AF208C031251
:03360100269B22E3
:10360400858412A2AF9205C2AF7584089000047439
:1036140021F07F2F7E0012376E9000047420F08515
:103624008A11758202E054016016C3E58A9511D3AC
:10363400943C400A851284A20592AF7F022280E561
:103644007F037E0012376E858A11758202E0540171
:103654007016C3E58A9511D394B4400A851284A2E6
:103664000592AF7F032280E5851284A20592AF7F85
:02367400002232
:103676008F11858413A2AF9205C2AF75840890009E
:1036860004E4F512E51130E0087421F07420F080AE
:10369600037421F07F027E0012376E7420F0E5116C
:1036A600C313F5110512E512C3940840D785138498
:0536B600A20592AF2205
:1036BB00751244858413A2AF9205C2AF758408902E
:1036CB000004E4F511E51230E0087421F07420F0E9
:1036DB0080037421F07F027E0012376E7420F0E5B8
:1036EB0012C313F5120511E511C3940740D77421CA
:1036FB00F07F017E0012376E7582027401F0851324
:06370B0084A20592AF222A
:103711008B118A128913858416A2AF9205C2AF75E7
:103721008408E4F515F514E515C313F515900004A7
:103731007421F0007420F0000000000000000090EF
:103741000002E0540160034315807F037E001237BD
:103751006E0514E514C3940840CD851684A2059224
:0D376100AFAB11AA12A913E5151237DB2238
:10376E00A2AFC2AFEF1FA80670011E4870F692AF4F
:01377E002228
:10377F00AA06AB077E007F6412376EEB1BA80270A0
:06378F00011A4870EF2250
:10210F00022296E493A3F8E493A34003F68001F22E
:10211F0008DFF48029E493A3F85407240CC8C333D1
:10212F00C4540F4420C8834004F456800146F6DFA0
:10213F00E4800B0102040810204080902590E47E7B
:10214F00019360BCA3FF543F30E509541FFEE49395
:10215F00A360010ECF54C025E060A840B8E493A35C
:10216F00FAE493A3F8E493A3C8C582C8CAC583CA87
:10217F00F0A3C8C582C8CAC583CADFE9DEE780BE3F
:0125FA0000E0
:10379500BB010689828A83E0225002E722BBFE0232
:0937A500E32289828A83E4932265
:1037AE00BB010CE58229F582E5833AF583E02250D0
:1037BE0006E92582F8E622BBFE06E92582F8E2221A
:0D37CE00E58229F582E5833AF583E4932234
:1037DB00BB010689828A83F0225002F722BBFE01CD
:0237EB00F322C7
:1037ED00F8BB010DE58229F582E5833AF583E8F012
:1037FD00225006E92582C8F622BBFE05E92582C8BE
:02380D00F222A5
:10380F00BC000BBE0029EF8DF084FFADF022E4CC9D
:10381F00F875F008EF2FFFEE33FEEC33FCEE9DEC66
:10382F00984005FCEE9DFE0FD5F0E9E4CEFD22EDAC
:10383F00F8F5F0EE8420D21CFEADF075F008EF2FF6
:10384F00FFED33FD4007985006D5F0F222C398FDE7
:05385F000FD5F0EA2284
:10386400C2D5EC30E709B2D5E4C39DFDE49CFCEE7F
:1038740030E715B2D5E4C39FFFE49EFE12380FC3B0
:10388400E49DFDE49CFC800312380F30D507C3E4AB
:063894009FFFE49EFE22EE
:10389A00C5F0F8A3E028F0C5F0F8E58215827002B9
:0638AA001583E038F02256
:1038B000A3F8E0C5F025F0F0E582158270021583CB
:0638C000E0C838F0E82228
:1038C600BB010A89828A83F0E5F0A3F0225006F74D
:0F38D60009A7F01922BBFE06F3E5F009F319224A
:0C38E500A42582F582E5F03583F58322EE
:1038F100FAE6FB0808E6F925F0F618E6CA3AF622D8
:10390100FAE6FB0808E625F0F9F618E63AFAF62297
:09391100E0FBA3E0FAA3E0F922B7
:09391A00EBF0A3EAF0A3E9F022AE
:00000001FF
:022100060000D7
