:0300000002004BB0
:18004B00759E83759D2D75985275EFAC75D80875FD3DB2B07401D2DCD0
:1800630030DFFDC2DF85DAFA85D9F9A9DAAAD97B007C00E913FBEA1337
:18007B002AFAEB39F97B007808E933F9EC3CD4FCEB3BD4FBD8F37808E4
:18009300EA33FAEC3CD4FCEB3BD4FBD8F37D027584089000067408F004
:1800AB007409F09000017482F01201E2900006740CF0740DF0EB54F0BE
:1800C3000303030324301201B8900001F01201E29000067408F0740905
:1800DB00F09000017483F01201E2900006740CF0740DF0742C1201B8CE
:1800F300900001F01201E29000067408F07409F09000017484F0120184
:18010B00E2900006740CF0740DF0EB540F24301201B8900001F0120182
:18012300E29000067408F07409F09000017485F01201E2900006740CEE
:18013B00F0740DF0EC54F00303030324301201B8900001F01201E290EA
:1801530000067408F07409F09000017486F01201E2900006740CF074CB
:18016B000DF0EC540F24301201B8900001F01201E274201201B89000AC
:18018300067408F07409F09000017488F01201E2900006740CF0740D8C
:18019B00F074421201B8900001F01201E2740A1201B8740D1201B812BE
:1801B30001F302004B3099FDC299F59922C0E0C41201D61201B8D0E05A
:1801CB00C0E01201D61201B8D0E022540FB40A0040022407243022C032
:1801E300D0D2D3C2D4799C7892D8FED9FAD0D0227D907E5B7FFFDFFE2E
:0501FB00DEFADDF62232
:00000001FF
:020000060000F8
