:03210000022103B6
:0C210300787FE4F6D8FD75815C02214A6B
:10232E0020202020204FC1B8B2BA610020202020EA
:10233E002053444B2D312E31003230303120284382
:10234E0029204C4D54204C7464002020D92D32206D
:10235E003E2D3620232D7E002020DA2D38203C2DD8
:10236E0034202A2D45736300A86FE363BA61B7BAB0
:10237E006100AB6163C32FE061BF61005465BCBEF9
:10238E00657061BF7970610043B365BF6FE3B86F6D
:10239E00E3C3002DA1BB61B3BD6F6520BC65BDC697
:1023AE002D004861B6BCB8BF6520BABB61B3B8C1D9
:0223BE007900A4
:0F23C0004C7000FF2376FF2380FF238AFF2396B4
:10218F0090705312381FE4FFC2061225287BFF7A86
:10219F0023792E7D101225829070531238167D10E0
:0421AF001225822251
:1021B300781C7601781CE6FD60177F077E001224E9
:1021C300617F327E00123690781CE6FF25E0F680B0
:1021D300E3781C7680781CE6FD60177F077E00128B
:1021E30024617F327E00123690781CE6FFC313F61B
:0B21F30080E37F077E00E4FD12246102
:0121FE0022BE
:1021FF007BFF7A23793A12254EE4FFD20612252867
:10220F007BFF7A23794712254EC2A9E47819F60885
:10221F00F67F047E007D241224617F027E00123639
:10222F007F7F047E007D201224617F027E001236A4
:10223F007F781A06E670021806C3781AE694F41827
:0D224F00E6940140CCD2A91221B31224E57F
:01225C00225F
:10225D007BFF7A23795812254EE4FFD206122528EA
:0A226D007BFF7A23796612254E22CA
:10227700E4F51012245B1221FF1226881224E512BE
:10228700225D7FD07E07123690E4F510907046E508
:1022970010F07B017A707900A312381F7D047BFF51
:1022A7007A2379A11230E68F10EF146012146014AC
:1022B700146016240370D512225D1230C780CD1228
:1022C7002DBB80C812344080C37BFF7A2379B012BC
:1022D700254E1230BD50051230C7803C750F017F67
:1022E700077E00AD0F1224617F327E00123690E523
:1022F7000F25E0F50F430F01E50FB4FFE2E50F608F
:10230700D17F077E00FD1224617F327E0012369056
:10231700E50F25E0F50F80E57F077E00E4FD122439
:062327006102229380FE1A
:01232D00228D
:06245B0012272AD2AF2275
:10246100AC84A2AFE433F9C2AF7584088F828E8346
:09247100EDF08C84E924FF92AF28
:01247A00223F
:10247B00AD84E4FBA2AF33F9C2AF7584088F828EB3
:0C248B0083E0FB8D84E924FF92AFAF03D7
:012497002222
:0723CF00C181011800C100EB
:05249800A206920122E2
:10249D008F177F067E00E5174401FD1224617F062C
:1024AD007E00E51754FEFD1224617F027E00123678
:0224BD0090226B
:1024BF007F017E003005047D0280027D00ED440C1B
:1024CF00FD3006047C0180027C00ED4CFD1224617E
:0624DF007F0812249D227B
:1024E5007F017E007D011224617F0812249DE4781E
:0524F50018F6C20022F0
:1024FA008F1530011A7818E6FFA2009206122528D5
:10250A00781806E6D36480948F4004E4F6B2007F1C
:0E251A00017E00AD151224617F0C12249D225B
:102528008F167F017E003006047D4080027D00E525
:10253800162D4480FD1224617F0812249D7818A668
:0625480016A2069200221B
:06254E008B118A128913B3
:10255400A2019205D206122498AB11AA12A9131251
:1025640036A660127811E475F0011237F61236A619
:0D257400FF1224FA80E3A2059206122498BB
:012581002237
:082582008B118A1289138D14DC
:10258A00E514C3940350221236A6FF700302267183
:10259A001224FAAB11AA12A9139000011236BFFF36
:1025AA0070030226711224FA2215141514E47819FC
:1025BA00F6AB11AA12A9137819E6FEF58275830003
:1025CA001236BFFF600EEEC3951450081224FA7833
:1025DA00190680DD05140514AB11AA12A91378197E
:1025EA00E6FFF5827583001236BF6003EF7010783C
:1025FA0019E606C39514506F7F201224FA80F078EA
:10260A0019E6FF7E002401FDEE33AB11AA12A913CD
:10261A008D82F5831236BF600FEF2402FFEE338FEF
:10262A0082F5831236BF7035AB11AA12A913781935
:10263A00E6F5827583001236BF60127819E606F550
:10264A00827583001236BFFF1224FA80DB7819E6FE
:10265A0006C3951450117F201224FA80F07F2E129F
:07266A0024FA7F2E1224FA6E
:012671002246
:1026C200546563BFB8706FB361BDB8652E2E2E001E
:1026D20043B3C7B7C4206320454550524F4D210034
:1026E20043B3C7B7C4206320C0616361BCB8210093
:0B2672007FA21227FE4002D322C322E9
:0B267D007FA01227FE4002D322C322E0
:102688007BFF7A2679C212254E12267250137BFFE1
:102698007A2679D212218F7FD07E071236901224A3
:1026A800E512267D50137BFF7A2679E212218F7F6F
:0A26B800D07E071236901224E522AE
:1026F200C0E0C0F0C083C082C0D0C000C001C00230
:10270200C003C004C005C006C007122FD3D007D033
:1027120006D005D004D003D002D001D000D0D0D052
:0827220082D083D0F0D0E03238
:10272A007F017C267DF21227475388EF5389F043B5
:0D273A008901E4F58CF58AD2A943881022AC
:10274700EF75F008A42403FFE5F03420FE0FEFAA8D
:102757000670010E14F5828A837402F08F828E83CD
:05276700ECF0A3EDF011
:01276C00224A
:0D276D00E4FFAE070FC3EE6480948240F5D8
:01277A00223C
:02277B00AD07A8
:10277D00D2EEC2EDE4FCC3EC648094885018ED30C9
:10278D00E703D38001C392EFD2ED12276DC2ED0C9A
:10279D00ED25E0FD80E0C2EED2ED12276DA2EC92A8
:0527AD0005C2EDA205CC
:0127B2002204
:1027B300D2EED2EFD2ED12276DC2EF12276DC2ED2A
:0127C30022F3
:1027C400D2EEC2EDC2EFD2ED12276DD2EF12276D19
:0327D400C2EE2230
:0B27D700AD071227B3AF0512277B22CD
:0E27E200D2EEC2EDC2EFD2ED12276DC2ED2293
:0E27F000D2EEC2EDD2EFD2ED12276DC2ED2275
:1027FE00D2EBEF54FEFF1227D750051227C4C32287
:05280E001227C4D322D3
:10281300E4FDC2EEC2EDFCED25E0FDD2ED12276D25
:0F282300A2ECE4334DFDC2ED0CECB408EAAF05B6
:012832002283
:0D283300907043EDF0A3EAF0A3EBF0A907CD
:10284000D2EBE954FEF9FF1227D750051227C4D363
:1028500022907043E0FF12277B50051227C4D32239
:1028600012276D12276DE94401F9FF1227D7500591
:102870001227C4D32212276D907046E014602CE416
:10288000FB907046E014FFEBC39F501F122813A368
:10289000EFF01227E2E0FF907044E475F001123788
:1028A000C185F082F583EFF00B80D612281390706B
:1028B00047EFF01227F0E0FF907044E0FCA3E0F552
:0928C000828C83EFF01227C4C3DF
:0128C90022EC
:0228CA00A9055E
:1028CC00D2EBEF54FEFF1227D750051227C4D322A8
:1028DC00AF0112277B50051227C4D322E4F9907064
:1028EC004CE0FFE9C39F50188B828A83E0FF1227CC
:1028FC007B50051227C4D322090BBB00010A80DED2
:04290C001227C4C307
:0129100022A4
:102F5000A86FBA61B72F7963BF20B37065BCC70093
:102F6000A86FBA61B72F7963BF20E361BF790042D0
:102F70006300A8BD0042BF00437000ABBF00A8BF04
:102F80000043B200A963BF2E20B37065BC2E3A2067
:102F90003C3ED9DA0043B3C7B7C4206320C06163A5
:102FA00061BCB8210020202020427065BCC73A00D7
:102FB00000A963BF2E20E361BFC33A203C3ED9DAAB
:102FC000002020202020E061BF613A002DAB61632A
:032FD000C32D000E
:1023D600467033FF2F50FF2F6055700CFF2F6FFF95
:1023E6002F72FF2F75FF2F78FF2F7BFF2F7EFF2F7A
:1023F6008149702A00003A00003A00000049702125
:0924060000002E00002E00000071
:1029110090703CE0543FFF7B017A70792A12322299
:1029210090703BE0FF7B017A70792D12322290701A
:0D2931003AE0FF7B017A70793012322222E9
:10293E0090703DE0543FFF7B017A70792112322274
:10294E0090703EE0541FFF7B017A70792412322280
:10295E0090703DE0FFC413135403FF7B017A70792E
:05296E002712322222B5
:1029730090704812381F90704B1238169000011255
:1029830036BFFFC4135407FF907048123816EF1276
:1029930036EC90704B1238161236A6543FFF1232A3
:1029A30013907048123816900001EF1236FE9070A3
:1029B3004B1238169000011236BF541FFF12321308
:1029C300907048123816900002EF1236FE90704B4A
:1029D3001238161236A6FFC413135403FF9070481F
:0B29E300123816900003EF1236FE229F
:1029EE0090704812381F90704B12381690000112DA
:1029FE0036BFFF1231FF90704B1238169000031243
:102A0E0036BFFEC4333354C04FFF90704812381691
:102A1E00EF1236EC90704B1238169000021236BF41
:102A2E00FF1231FF90704B1238161236A6FEC433C9
:102A3E0054E04FFF907048123816900001EF123696
:022A4E00FE2266
:102A50007B017A70793A90704312381FE4FFC20606
:102A60001225287BFF7A2F798412254ED205D206B3
:102A70001224BF907042740AF0FFD2061225281269
:102A800030C7EF24DD7003022B1824F97003022BEA
:102A90003E24F8604924FC602824FE605E24046023
:102AA00003022B6A907042E0D394045003022B6A15
:102AB000E024FDF0907044E475F0011237AB022B76
:102AC0006A907042E0C3940A4003022B6AE0240338
:102AD000F090704474FFF5F01237AB022B6A9070DF
:102AE00043123816907042E0D3940440047D3C8039
:102AF000027D1812323E122911806F9070431238F5
:102B000016907042E0D3940440047D3C80027D180E
:102B100012325612291180527FA07D017A707B39C2
:102B200090704C7404F01228CA50137BFF7A2F79EE
:102B30009512218F7FE87E031236901224E5C2059C
:102B4000C2061224BFE4FFC2061225287BFF7A2F9B
:102B500079A57D101225827F0DD2061225287BFFD4
:102B60007A2F79B07D03122582227F03D2061225A7
:102B7000287B017A70792A12254E907042E0FFD2AC
:072B800006122528022A7F3E
:012B8700222B
:102B88007B017A70793D90704B12381F7A707944C6
:102B98001229731224E57BFF7A2F79B112254ED2C0
:102BA80005D2061224BF907042740AF09070267401
:102BB8002EF0E4FFD206122528907044E075F00349
:102BC800A4240CF582E43470F58312381612254ECD
:102BD8007F201224FA907045E0FF7B017A707921FA
:102BE800123237907046E0FF7B017A7079241232F6
:102BF80037907047E0FF7B017A7079271232377B74
:102C0800017A70792112254E907042E0FFD20612A7
:102C18002528907046E024FE601824FB600C24FEF2
:102C2800600824FE60042407701E907043741EF030
:102C3800801C907047E06008907043741CF0800E10
:102C4800907043741DF08006907043741FF012302A
:102C5800C7EF24DD7003022D6C24F97003022DA543
:102C680024F8603824FC602124FE7003022D0A2415
:102C7800046003022BBA907042E0D394015003021F
:102C88002BBAE024FDF0022BBA907042E0C3940AFC
:102C98004003022BBAE02403F0022BBA907042E002
:102CA80024FC602024FD603824FD60492409600369
:102CB800022BBA907044E004F0E075F00784E5F068
:102CC800F0022BBA907045E004F0907043E0FF905A
:102CD8007045E0D39F5003022BBA7401F0022BBA5F
:102CE800907046E004F0E0D3940C5003022BBA74C1
:102CF80001F0022BBA907047E004F0E05403F002B0
:102D08002BBA907042E024FC602424FD603724FD37
:102D1800604524096003022BBA907044E070067481
:102D280006F0022BBA907044E014F0022BBA9070AF
:102D380045E014F0E06003022BBA907043E0907015
:102D480045F0022BBA907046E014F0E06003022BC5
:102D5800BA740CF0022BBA907047E014F0E05403F8
:102D6800F0022BBA7B017A70794490704B12381FAD
:102D78007A70793D1229EE7FA07D057A707B3D90AF
:102D8800704C7402F01228CA50137BFF7A2F799581
:102D980012218F7FE87E031236901224E5C205C205
:102DA800061224BF1224E57BFF7A2F79C17D101209
:022DB800258272
:012DBA0022F6
:102DBB0090702C743AF090702FF0E4907032F09089
:102DCB007023742EF0E4907029F0A3F07FA01227EB
:102DDB00FE50257FA0E4FD7A707B2A90704C04F0A6
:102DEB001228CA40137FA07D017A707B3990704600
:102DFB007406F012283350117BFF7A2F799512212C
:102E0B008F7FE87E0312369022E4907041F0907031
:102E1B0041E0907046F07B017A707933A312381F32
:102E2B007D027BFF7A2F79CC1230E6907041EFF068
:102E3B00E4FFC206122528907041E014606E240254
:102E4B007003022F4F1470C67BFF7A2F79A57D106C
:102E5B001225827FA07D017A707B399070467404B5
:102E6B00F012283350117BFF7A2F799512218F7F27
:102E7B00E87E03123690221229117F03D206122507
:102E8B00287B017A70792A7D0B1225821230BD5076
:102E9B00C21230C7907040EFF0642A7003022E19F3
:102EAB00907040E0B423AC122A5080A77BFF7A2F9E
:102EBB0079C17D101225821230BD500B1230C7EF35
:102ECB00642A7003022E197FA07D057A707B3D90DA
:102EDB0070467402F012283350117BFF7A2F7995CC
:102EEB0012218F7FE87E031236902212293E7F0239
:102EFB00D20612252890703EE0FFC413540775F0DC
:102F0B0003A4240CF582E43470F5831238161225D1
:102F1B004E7F201224FA7B017A70792112254E12F2
:102F2B0030BD50931230C7907040EFF0642A70039D
:102F3B00022E19907040E064236003022EC2122B04
:042F4B0088022EC208
:012F4F00225F
:10240F0011333134372A323538303336392341429C
:10241F0043440001210001220001080001090001CD
:02242F000A00A1
:102FD300530903530803E509C394044003023076FD
:102FE300E4FFFEAD0904A805088002C333D8FCF44E
:102FF300FD122461E508C394045070E4FFFE12241B
:103003007BEFFD7C0074107E00A808088005C333A5
:10301300CE33CED8F9FFEE5CFEEF5D4E7046E50A87
:10302300146008047009750A01C322050A800BE5C0
:103033000AC394195004050AC3227822E6FFC36425
:10304300809490501DE50925E025E025082433F8F8
:10305300E6FE7821E62F540F2423F8A606782206ED
:10306300D322C322E4F50A050880890509E4F5089B
:04307300022FD9C38C
:013077002236
:10307800E4F512E4F5130513E513B402F97F047EB1
:103088000012247BEF4404FD7F047E00122461E4D7
:10309800F5130513E513B402F97F047E0012247BAF
:1030A800EF54FBFD7F047E001224610512E512C374
:0430B800949640BFEB
:0130BC0022F1
:0A30BD007822E66003D38001C322ED
:1030C7007822E660FBC2A97821E6540F2423F8E6AC
:0E30D700F5117821060816123078D2A9AF1133
:0130E50022C8
:0B30E60090704212381F907045EDF012
:1030F1001224E5C205C2061224BFE490704AF09082
:10310100704212381690704AE0FFF5827583001202
:1031110036BF600890704AE004F080E3EFC3940F7B
:10312100500DC3740F9FFFC313FFC20612252890D1
:1031310070421238167D0F1225827F0FC2061225AA
:10314100287FD91224FA7F0FD2061225287FDA129E
:1031510024FA907045E0FFA3E0FEC39F40047F0086
:103161008002AF0690704AEFF0E4FFD206122528E4
:1031710090704712381690704AE075F003A4F582FA
:1031810085F0831238287D0F1225821230C7EF2473
:10319100DD606224F9605824F6604124FE60442415
:1031A100FE601C240670C290704AE0FF600414FFA8
:1031B1008006907045E014FF90704AEFF080AA906D
:1031C1007045E014FF90704AE0FEC39F5005EE0485
:1031D100FF80027F0090704AEFF0808DE490704A8A
:1031E100F08086907045E01490704AF002316A9048
:0D31F100704A74FFF01224E590704AE0FF70
:0131FE0022AE
:1031FF00EF75F00A84FEC454F0FEEF75F00A84E513
:04320F00F04EFF225C
:0F321300EFC4540F75F00AA4FEEF540F2EFF22E4
:10322200EFC4540F24301236ECEF540F24309000C8
:05323200011236FE222E
:063237001231FF123222E9
:01323D00226E
:10323E001236A6FF123213AE050FEF8EF084AFF0EA
:07324E001231FFEF1236EC14
:013255002256
:103256001236A6FF123213EF7005ED14FF80011F20
:0F326600AE05EF8EF084AFF01231FFEF1236ECB1
:013275002236
:0424310041703F00B7
:1032760012351590703FE054F9FEF0EF5403FD252A
:09328600E04EF0EF6002D322C318
:01328F00221C
:0632900090703FE0FF22F8
:063296008B0B8A0C890D70
:10329C0090703FE030E002D3221232765002D322FB
:1032AC007F33123587E4F50EAB0B7E00E50D250E52
:1032BC00F9EE350CFA123622050EE50EC3940840D1
:0432CC00E71232765D
:0132D00022DB
:0632D10090705312381F3B
:1032D70090703FE030E002D3221232765002D322C0
:1032E7007FCC1235877FBE1235877B017A7079567E
:1032F700123622907056E0FFA3E4F0A3EFF07B01B3
:103307007A707956123622907056E0FEA3E04EFE90
:10331700A3E0FF907057EEF0A3EFF0FF7C007D1065
:10332700123775907057EEF0A3EFF0907053123884
:0A33370016EE8FF01237D71232762F
:013341002269
:1033420090703FE030E002D3221232765002D32254
:103352007FCC1235871235CC90703FE04401F07F6C
:10336200207E0312369090703FE054FEF01234F249
:033372001232769E
:013375002235
:10243500015C0A014400C102C103C10417453031E2
:102445003233343536373839414243444546616283
:052455006364656600F0
:0A3376008E118F128B138A14891533
:10338000C205E4F516300216C3EE64809480500E38
:10339000C3E49FF512E49EF511D205751601AB1238
:1033A000AA11EB4A6019EB4A6018AE02AF03785CD1
:1033B000E6FD7C00123720AA06AB07051680E775EC
:1033C0001601E5162515F515E43514F51430030935
:1033D000AB13FAA915E41236ECE5124511603CE591
:1033E0001245116047785CE6FD7C00AE11AF121209
:1033F00037208D1774452517F8E6FF781374FFF50D
:10340000F0123806EF1236ECAE11AF12785CE6FD22
:103410007C001237208E118F1280C47845E6FF7829
:103420001374FFF5F0123806EF1236EC30050E7803
:0F3430001374FFF5F0123806742D1236ECAF1638
:01343F00226A
:1034CC0020205465BCBE657061BF7970613A00EF15
:1034DC00432020200043B3C7B7C4206320E361BF5F
:0634EC00C0B8BA6FBC007D
:10344000E4907051F0A3F0785C760AD202D20312B5
:1034500024E57BFF7A3479CC12254E7F05D2061203
:103460002528907051E0FEA3E0FF7B017A7079403F
:103470001233767B017A70794012254E7BFF7A34C5
:1034800079DB12254E1230BD500A1230C7BF2A0414
:103490001224E52212334250147BFF7A3479E11270
:1034A000218F7FDC7E051236901224E5227B017A83
:1034B0007079511232D150A37BFF7A3479E1122115
:0B34C0008F7FDC7E051236901224E5A1
:0134CB0022DE
:1034F200AF84A2AF9205C2AF758408742090000415
:10350200F0E4758202F08F84A20592AF208C031240
:03351200272A2243
:10351500858412A2AF9205C2AF7584089000047429
:1035250021F07F2F7E0012367F9000047420F085F5
:103535008A11758202E054016016C3E58A9511D39C
:10354500943C400A851284A20592AF7F022280E551
:103555007F037E0012367F858A11758202E0540151
:103565007016C3E58A9511D394B4400A851284A2D6
:103575000592AF7F032280E5851284A20592AF7F75
:02358500002222
:103587008F11858413A2AF9205C2AF75840890008E
:1035970004E4F512E51130E0087421F07420F0809E
:1035A700037421F07F027E0012367F7420F0E5114C
:1035B700C313F5110512E512C3940840D785138488
:0535C700A20592AF22F5
:1035CC00751244858413A2AF9205C2AF758408901E
:1035DC000004E4F511E51230E0087421F07420F0D9
:1035EC0080037421F07F027E0012367F7420F0E598
:1035FC0012C313F5120511E511C3940740D77421BA
:10360C00F07F017E0012367F7582027401F0851303
:06361C0084A20592AF221A
:103622008B118A128913858416A2AF9205C2AF75D7
:103632008408E4F515F514E515C313F51590000497
:103642007421F0007420F0000000000000000090DF
:103652000002E0540160034315807F037E001236AE
:103662007F0514E514C3940840CD851684A2059203
:0D367200AFAB11AA12A913E5151236EC2218
:10367F00A2AFC2AFEF1FA80670011E4870F692AF3F
:01368F002218
:10369000AA06AB077E007F6412367FEB1BA8027080
:0636A000011A4870EF2240
:10210F00022277E493A3F8E493A34003F68001F24D
:10211F0008DFF48029E493A3F85407240CC8C333D1
:10212F00C4540F4420C8834004F456800146F6DFA0
:10213F00E4800B01020408102040809023C0E47E4D
:10214F00019360BCA3FF543F30E509541FFEE49395
:10215F00A360010ECF54C025E060A840B8E493A35C
:10216F00FAE493A3F8E493A3C8C582C8CAC583CA87
:10217F00F0A3C8C582C8CAC583CADFE9DEE780BE3F
:01245A000081
:1036A600BB010689828A83E0225002E722BBFE0222
:0936B600E32289828A83E4932255
:1036BF00BB010CE58229F582E5833AF583E02250C0
:1036CF0006E92582F8E622BBFE06E92582F8E2220A
:0D36DF00E58229F582E5833AF583E4932224
:1036EC00BB010689828A83F0225002F722BBFE01BD
:0236FC00F322B7
:1036FE00F8BB010DE58229F582E5833AF583E8F002
:10370E00225006E92582C8F622BBFE05E92582C8AD
:02371E00F22295
:10372000BC000BBE0029EF8DF084FFADF022E4CC8D
:10373000F875F008EF2FFFEE33FEEC33FCEE9DEC56
:10374000984005FCEE9DFE0FD5F0E9E4CEFD22ED9C
:10375000F8F5F0EE8420D21CFEADF075F008EF2FE6
:10376000FFED33FD4007985006D5F0F222C398FDD7
:053770000FD5F0EA2274
:10377500C2D5EC30E709B2D5E4C39DFDE49CFCEE6F
:1037850030E715B2D5E4C39FFFE49EFE123720C390
:10379500E49DFDE49CFC800312372030D507C3E48B
:0637A5009FFFE49EFE22DE
:1037AB00C5F0F8A3E028F0C5F0F8E58215827002A9
:0637BB001583E038F02246
:1037C100A3F8E0C5F025F0F0E582158270021583BB
:0637D100E0C838F0E82218
:1037D700BB010A89828A83F0E5F0A3F0225006F73D
:0F37E70009A7F01922BBFE06F3E5F009F319223A
:1037F600FAE6FB0808E6F925F0F618E6CA3AF622D4
:10380600FAE6FB0808E625F0F9F618E63AFAF62293
:09381600E0FBA3E0FAA3E0F922B3
:09381F00EBF0A3EAF0A3E9F022AA
:10382800BB010DE58229F582E5833AF58302381656
:103838005007E92582F8023858BBFE07E92582F8C7
:10384800023861E58229F582E5833AF58302386A10
:09385800E6FB08E6FA08E6F92295
:09386100E2FB08E2FA08E2F92298
:0C386A00E493FB740193FA740293F922BA
:00000001FF
:022100060000D7
