:030000000200807B
:0700030000C0E0740480401E
:07000B0000C0E0740C803816
:0700130000C0E0741480300E
:07001B0000C0E0741C802806
:0700230000C0E074248020FE
:07002B0000C0E0742C8018F6
:0700330000C0E074348010EE
:07003B0000C0E0743C8008E6
:1000430000C0E074448000C0E0C082C083F582E851
:10005300C0E0758320A881181818E0F618A3E0C63D
:0C006300F582D0E0F8E582D083D0822244
:04007C0002008000FE
:0C008000787FE4F6D8FD7581800200C78F
:0702E600C181011A00C100F3
:05010C00A20692012291
:100111008F197F067E00E5194401FD1203557F0604
:100121007E00E51954FEFD1203557F017E00120485
:02013100672243
:100133007F017E003005047D0280027D00ED440CCA
:10014300FD3006047C0180027C00ED4CFD1203555A
:060153007F0812011122D9
:100159007F017E007D011203557F08120111E478A9
:050169001AF6C200229D
:10016E008F1730011A781AE6FFA200920612019C30
:10017E00781A06E6D36480948F4004E4F6B2007FCA
:0E018E00017E00AD171203557F0C12011122E5
:10019C008F187F017E003006047D4080027D00E5D3
:1001AC00182D4480FD1203557F08120111781AA6F0
:0601BC0018A206920022C9
:0601C2008B138A1489155D
:1001C800A2019205D20612010CAB13AA14A91512AA
:1001D80016FE60127813E475F00112185A1216FE12
:0D01E800FF12016E80E3A205920612010CC9
:0101F50022E7
:0801F6008B138A1489158D1684
:1001FE00E516C3940350221216FEFF70030202E5A9
:10020E0012016EAB13AA14A915900001121717FF55
:10021E0070030202E512016E2215161516E4781B04
:10022E00F6AB13AA14A915781BE6FEF582758300AA
:10023E00121717FF600EEEC39516500812016E7856
:10024E001B0680DD05160516AB13AA14A915781B1F
:10025E00E6FFF5827583001217176003EF701078B2
:10026E001BE606C39516506F7F2012016E80F07844
:10027E001BE6FF7E002401FDEE33AB13AA14A91575
:10028E008D82F583121717600FEF2402FFEE338F66
:10029E0082F5831217177035AB13AA14A915781BA4
:1002AE00E6F5827583001217176012781BE606F5C5
:1002BE0082758300121717FF12016E80DB781BE622
:1002CE0006C3951650117F2012016E80F07F2E12FC
:0702DE00016E7F2E12016E7C
:0102E50022F6
:10035500AC84A2AFE433F9C2AF7584088F828E8373
:09036500EDF08C84E924FF92AF55
:01036E00226C
:10036F00AD84E4FBA2AF33F9C2AF7584088F828EE0
:0C037F0083E0FB8D84E924FF92AFAF0304
:01038B00224F
:1002ED0001390A012100C102C103C10417223031B5
:1002FD0032333435363738394142434445466162ED
:05030D00636465660059
:0A038C008E138F148B158A16891743
:10039600C205E4F518300216C3EE64809480500E50
:1003A600C3E49FF514E49EF513D205751801AB144A
:1003B600AA13EB4A6019EB4A6018AE02AF0378390C
:1003C600E6FD7C00121778AA06AB07051880E775CC
:1003D6001801E5182517F517E43516F51630030943
:1003E600AB15FAA917E4121744E5144513603CE56A
:1003F60014451360477839E6FD7C00AE13AF14123E
:1004060017788D1974222519F8E6FF781574FFF50B
:10041600F012186AEF121744AE13AF147839E6FDDE
:100426007C001217788E138F1480C47822E6FF782A
:100436001574FFF5F012186AEF12174430050E789E
:0F0446001574FFF5F012186A742D121744AF18D1
:010455002284
:10045600A2AFC2AFEF1FA80670011E4870F692AF9A
:010466002273
:10046700AA06AB07AE08AF09120456EB1BA8027029
:06047700011A4870EF229B
:05047D008E088F09222A
:040312000208006479
:10048200EF75F00A84FEC454F0FEEF75F00A84E5BD
:04049200F04EFF2207
:0F049600EFC4540F75F00AA4FEEF540F2EFF228F
:1004A500EFC4540F2430121744EF540F243090003A
:0504B5000112175622A0
:0604BA001204821204A5E9
:0104C0002219
:1004C1001216FEFF120496AE050FEF8EF084AFF008
:0704D100120482EF12174430
:0104D8002201
:1004D9001216FEFF120496EF7005ED14FF80011F3E
:0F04E900AE05EF8EF084AFF0120482EF121744CD
:0104F80022E1
:010BA2000052
:1003160049000900003A00003A00000049000000C8
:08032600002E00002E00000073
:1004F900900015E0543FFF7B017A0079091204A5A9
:10050900900014E0FF7B017A00790C1204A5900099
:0D05190013E0FF7B017A00790F1204A52288
:10052600900016E0543FFF7B017A0079001204A583
:10053600900017E0541FFF7B017A0079031204A58F
:10054600900016E0FFC413135403FF7B017A007971
:05055600061204A522BD
:10055B0090002112188390002412187A9000011237
:10056B001717FFC4135407FF90002112187AEF12CC
:10057B00174490002412187A1216FE543FFF1204EF
:10058B009690002112187A900001EF1217569000E6
:10059B002412187A900001121717541FFF12049699
:1005AB0090002112187A900002EF12175690002437
:1005BB0012187A1216FEFFC413135403FF90002176
:0B05CB0012187A900003EF121756225E
:1005D60090002112188390002412187A90000112BC
:1005E6001717FF12048290002412187A9000031243
:1005F6001717FEC4333354C04FFF90002112187AE8
:10060600EF12174490002412187A9000021217175E
:10061600FF12048290002412187A1216FEFEC433CA
:1006260054E04FFF90002112187A900001EF121744
:0206360056224A
:100638007B017A00791390001C121883E4FFC2062C
:1006480012019C9013A9E493FE740193AA06F97B06
:10065800FF1201C2D205D20612013390001B740AA0
:10066800F0FFD20612019C120F21EF24DD70030265
:10067800070924F9700302073724F8604924FC604D
:100688002824FE605F2404600302076B90001BE0CF
:10069800D39404500302076BE024FDF090001DE49E
:1006A80075F00112180302076B90001BE0C3940A4F
:1006B800400302076BE02403F090001D74FFF5F07F
:1006C80012180302076B90001C12187A90001BE0A6
:1006D800D3940440047D3C80027D181204C11204A6
:1006E800F902076B90001C12187A90001BE0D39453
:1006F8000440047D3C80027D181204D91204F9805C
:10070800627FA07D017A007B129000257404F012AC
:100718000E00501B9013A7E493FE740193AA06F9E8
:100728007BFF120F4D7FE87E03120467120159C246
:1007380005C206120133E4FFC20612019C9013ABF6
:10074800E493FE740193AA06F97BFF7D101201F66B
:100758007F0DD20612019C7BFF7A0B79A27D0312D2
:1007680001F6227F03D20612019C7B017A007909E7
:100778001201C290001BE0FFD20612019C02066F14
:01078800224E
:100789007B017A0079169000241218837A00791D6A
:1007990012055B1201599013ADE493FE740193AAFB
:1007A90006F97BFF1201C2D205D20612013390006D
:1007B9001B740AF0900005742EF0E4FFD2061201B2
:1007C9009C90001DE075F0029013CD12184EE49331
:1007D900FE740193AA06F97BFF1201C27F20120160
:1007E9006E90001EE0FF7B017A0079001204BA9036
:1007F900001FE0FF7B017A0079031204BA90002000
:10080900E0FF7B017A0079061204BA7B017A00794C
:10081900001201C290001BE0FFD20612019C900059
:100829001FE024FE601824FB600C24FE600824FEEF
:1008390060042407701E90001C741EF0801C900038
:1008490020E0600890001C741CF0800E90001C745D
:100859001DF0800690001C741FF0120F21EF24DD9B
:10086900700302097924F970030209BA24F860387F
:1008790024FC602124FE700302091724046003028A
:1008890007C390001BE0D3940150030207C3E0247F
:10089900FDF00207C390001BE0C3940A400302075E
:1008A900C3E02403F00207C390001BE024FC60208E
:1008B90024FD603824FD6049240960030207C390C0
:1008C900001DE004F0E075F00784E5F0F00207C3CD
:1008D90090001EE004F090001CE0FF90001EE0D3A1
:1008E9009F50030207C37401F00207C390001FE081
:1008F90004F0E0D3940C50030207C37401F002071B
:10090900C3900020E004F0E05403F00207C3900014
:100919001BE024FC602424FD603724FD6045240984
:1009290060030207C390001DE070067406F0020719
:10093900C390001DE014F00207C390001EE014F0FC
:10094900E060030207C390001CE090001EF002075C
:10095900C390001FE014F0E060030207C3740CF0B9
:100969000207C3900020E014F0E05403F00207C32B
:100979007B017A00791D9000241218837A00791678
:100989001205D67FA07D057A007B1690002574029A
:10099900F0120E00501B9013A7E493FE740193AA62
:1009A90006F97BFF120F4D7FE87E031204671201DF
:1009B90059C205C2061201331201599013AFE493CB
:0E09C900FE740193AA06F97BFF7D101201F661
:0109D70022FD
:1009D80090000B743AF090000EF0E4900011F09043
:1009E8000002742EF0E4900008F0A3F07FA0120D2E
:1009F8003450257FA0E4FD7A007B0990002504F09F
:100A0800120E0040137FA07D017A007B1290001F18
:100A18007406F0120D6950199013A7E493FE74013F
:100A280093AA06F97BFF120F4D7FE87E0312046735
:100A380022E490001AF09013B1E493FE740193AA93
:100A480006F97BFF7D0290001AE090001FF0A37466
:100A580013F0A374C9F012113790001AEFF0E4FFF5
:100A6800C20612019C90001AE0147003020AF524D1
:100A7800027003020BA11470BD9013ABE493FE74D3
:100A88000193AA06F97BFF7D101201F67FA07D0174
:100A98007A007B1290001F7404F0120D69501990AF
:100AA80013A7E493FE740193AA06F97BFF120F4D76
:100AB8007FE87E03120467221204F97F03D206122C
:100AC800019C7B017A0079097D0B1201F6120F1740
:100AD80050BA120F21900019EFF0642A7003020A2D
:100AE8003E900019E0B423A4120638809F9013AFFB
:100AF800E493FE740193AA06F97BFF7D101201F6B8
:100B0800120F17500B120F21EF642A7003020A3ECE
:100B18007FA07D057A007B1690001F7402F0120DED
:100B28006950199013A7E493FE740193AA06F97B00
:100B3800FF120F4D7FE87E03120467221205267FFD
:100B480002D20612019C900017E0FFC413540775E7
:100B5800F0029013CD12184EE493FE740193AA0686
:100B6800F97BFF1201C27F2012016E7B017A0079A6
:100B7800001201C2120F175087120F21900019EFAF
:100B8800F0642A7003020A3E900019E064236003AF
:090B9800020B08120789020B0888
:010BA1002231
:04032E004100180072
:100BA300121594900018E054F9FEF0EF5403FD255C
:090BB300E04EF0EF6002D322C312
:010BBC002216
:060BBD00900018E0FF2289
:060BC3008B0A8A0B890C6D
:100BC900900018E030E002D322120BA35002D32286
:100BD9007F33121606E4F50DAB0A7E00E50C250DF0
:100BE900F9EE350BFA1216A1050DE50DC39408406F
:040BF900E7120BA351
:010BFD0022D5
:060BFE0090002C12188388
:100C0400900018E030E002D322120BA35002D3224A
:100C14007FCC1216067FBE1216067B017A00792F4E
:100C24001216A190002FE0FFA3E4F0A3EFF07B01E4
:100C34007A00792F1216A190002FE0FEA3E04EFE59
:100C4400A3E0FF900030EEF0A3EFF0FF7C007D10F6
:100C54001217CD900030EEF0A3EFF090002C121894
:0A0C64007AEE8FF012182F120BA386
:010C6E002263
:100C6F00900018E030E002D322120BA35002D322DF
:100C7F007FCC12160612164B900018E04401F07F3D
:100C8F00EE7E02120467900018E054FEF012157108
:030C9F00120BA392
:010CA200222F
:0D0CA300E4FFAE070FC3EE6480948240F5BD
:010CB0002221
:020CB100AD078D
:100CB300D2EEC2EDE4FCC3EC648094885018ED30AE
:100CC300E703D38001C392EFD2ED120CA3C2ED0C64
:100CD300ED25E0FD80E0C2EED2ED120CA3A2EC9272
:050CE30005C2EDA205B1
:010CE80022E9
:100CE900D2EED2EFD2ED120CA3C2EF120CA3C2EDD9
:010CF90022D8
:100CFA00D2EEC2EDC2EFD2ED120CA3D2EF120CA3C8
:030D0A00C2EE2214
:0B0D0D00AD07120CE9AF05120CB1227B
:0E0D1800D2EEC2EDC2EFD2ED120CA3C2ED225C
:0E0D2600D2EEC2EDD2EFD2ED120CA3C2ED223E
:100D3400D2EBEF54FEFF120D0D5005120CFAC32234
:050D4400120CFAD3229D
:100D4900E4FDC2EEC2EDFCED25E0FDD2ED120CA3EF
:0F0D5900A2ECE4334DFDC2ED0CECB408EAAF059B
:010D68002268
:0D0D690090001CEDF0A3EAF0A3EBF0A90749
:100D7600D2EBE954FEF9FF120D0D5005120CFAD311
:100D86002290001CE0FF120CB15005120CFAD3227F
:100D9600120CA3120CA3E94401F9FF120D0D500524
:100DA600120CFAD322120CA390001FE014602CE45C
:100DB600FB90001FE014FFEBC39F501F120D49A3C9
:100DC600EFF0120D18E0FF90001DE475F001121807
:100DD6001985F082F583EFF00B80D6120D4990004D
:100DE60020EFF0120D26E0FF90001DE0FCA3E0F5D9
:090DF600828C83EFF0120CFAC3A9
:010DFF0022D1
:020E0000A90542
:100E0200D2EBEF54FEFF120D0D5005120CFAD32255
:100E1200AF01120CB15005120CFAD322E4F9900082
:100E220025E0FFE9C39F50188B828A83E0FF120CF2
:100E3200B15005120CFAD322090BBB00010A80DE65
:040E4200120CFAC3D1
:010E46002289
:10033200114C3134372A3235383033363923414281
:10034200434400013A00013B00010E00010F00018D
:02035200100099
:100E4700530F03530E03E50FC394044003020EEA46
:100E5700E4FFFEAD0F04A805088002C333D8FCF4F5
:100E6700FD120355E50EC394045070E4FFFE120310
:100E77006FEFFD7C0074107E00A80E088005C33359
:100E8700CE33CED8F9FFEE5CFEEF5D4E7046E5102F
:100E9700146008047009751001C3220510800BE562
:100EA70010C3941950040510C322783BE6FFC364AE
:100EB700809490501DE50F25E025E0250E244CF881
:100EC700E6FE783AE62F540F243CF8A606783B0650
:100ED700D322C322E4F510050E8089050FE4F50E31
:040EE700020E4DC3E7
:010EEB0022E4
:100EEC00E4F514E4FFFE1204677F047E007D3C12DF
:100EFC000355E4FFFE1204677F047E007D2012037D
:0A0F0C00550514E514C3940F40D9F5
:010F160022B8
:0A0F1700783BE66003D38001C3229B
:100F2100783BE660FBC2A9783AE6540F243CF8E628
:0E0F3100F513783A060816120EECD2A9AF138B
:010F3F00228F
:10111900202020202053444B2D312E3100323030F5
:0E1129003120284329204C4D54204C74640082
:0D0F40007F647E0012047D12152ED2AF22B8
:100F4D0090002C121883E4FFC20612019C9013B37B
:100F5D00E493FE740193AA06F97BFF7D101201F64E
:100F6D00E4FFD20612019C90002C12187A7D10120B
:030F7D0001F62258
:100F8000781E7601781EE6FD60177F077E0012034B
:100F9000557F327E00120467781EE6FF25E0F6805A
:100FA000E3781E7680781EE6FD60177F077E0012CC
:100FB00003557F327E00120467781EE6FFC313F6E6
:0B0FC00080E37F077E00E4FD12035574
:010FCB002203
:100FCC007BFF7A1179191201C2E4FFD20612019C3F
:100FDC007BFF7A1179261201C2C2A9E4781BF608AC
:100FEC00F67F047E007D3C1203557F027E001204C6
:100FFC00567F047E007D201203557F027E00120472
:10100C0056781C06E670021806C3781CE694F41891
:0D101C00E6940140CCD2A9120F80120159B8
:0110290022A4
:10102A009013C5E493FE740193AA06F97BFF12019B
:10103A00C2E4FFD20612019C9013C7E493FE740126
:0A104A0093AA06F97BFF1201C222EF
:10105400E4F512120F40120FCC1213F912015912B7
:10106400102A7FD07E07120467E4F5129013B5E4CA
:1010740093FE740193AA06F97BFF7D0490001FE59B
:1010840012F0A37413F0A374DBF01211378F12EF74
:10109400146012146014146016240370CF12102A02
:1010A400120F2180C71209D880C212144B80BD9040
:1010B40013B7E493FE740193AA06F97BFF1201C2ED
:1010C400120F175005120F21803C7511017F077E06
:1010D40000AD111203557F327E00120467E511251D
:1010E400E0F511431101E511B4FFE2E51160D17F90
:1010F400077E00FD1203557F327E00120467E5115E
:1011040025E0F51180E57F077E00E4FD120355021A
:04111400107080FED9
:0111180022B4
:0B11370090001B12188390001EEDF0CA
:10114200120159C205C206120133E4900022F09046
:10115200001B12187A900022E0FFF58275830012BC
:1011620017176008900022E004F080E3EFC3940FA9
:10117200500DC3740F9FFFC313FFC20612019C9050
:10118200001B12187A7D0F1201F67F0FC2061201A0
:101192009C7FD912016E7F0FD20612019C7FDA1258
:1011A200016E90001EE0FFA3E0FEC39F40047F009B
:1011B2008002AF06900022EFF0E4FFD20612019CFB
:1011C200900020E0FEA3E0F5828E83C083C082906F
:1011D2000022E0D082D08375F00212184EE493FE12
:1011E200740193AA06F97BFF7D0F1201F6120F21FB
:1011F200EF24DD606424F9605A24F6604224FE6024
:101202004624FE601C240670B0900022E0FF6004B9
:1012120014FF800690001EE014FF900022EFF08081
:101222009890001EE014FF900022E0FEC39F50053C
:10123200EE04FF80027F00900022EFF00211BBE477
:10124200900022F00211BB90001EE014900022F0E8
:101252000211BB90002274FFF0120159900022E0AB
:01126200FF8C
:011263002268
:1012640043B3C7B7C4206320C0616361BCB8210025
:10127400A963BF2E20B37065BC2E3A203C3ED9DA58
:101284000020202020427065BCC73A00A963BF2E0D
:1012940020E361BFC33A203C3ED9DA00202020205D
:1012A40020E061BF613A002DAB6163C32D002020B3
:1012B4002020204FC1B8B2BA61002DA1BB61B3BDDB
:1012C4006F6520BC65BDC62D004861B6BCB8BF655E
:1012D40020BABB61B3B8C17900546563BFB8706FFD
:1012E400B361BDB8652E2E2E0043B26FB920BE6126
:1012F400BCC7BFB8210043B3C7B7C420632045456A
:1013040050524F4D210020205465BCBE657061BF12
:101314007970613A0043B3C7B7C4206320E361BF67
:10132400C0B8BA6FBC002020D92D32203E2D362003
:10133400232D7E002020DA2D38203C2D34202A2D28
:1013440045736300A86FBA61B72F7963BF20B37088
:1013540065BCC700A86FBA61B72F7963BF20E3618A
:10136400BF7900426300A8BD0042BF00437000ABD8
:10137400BF00A8BF0043B200A86FE363BA61B7BA65
:101384006100AB6163C32FE061BF61005465BCBE03
:10139400657061BF7970610043B365BF6FE3B86F77
:1013A400E3C300126412741285129012A012AB12DD
:1013B400B212BE12CD12DD12ED12FA1264130A1328
:1013C40019132A1338134813581367136A136D1328
:0F13D40070137313761379137C13861390139C85
:0B13E3007FA2120D344002D322C3226F
:0B13EE007FA0120D344002D322C32266
:1013F9009013B9E493FE740193AA06F97BFF1201D5
:10140900C21213E3501B9013BDE493FE740193AA17
:1014190006F97BFF120F4D7FD07E07120467120178
:10142900591213EE501B9013A7E493FE740193AA6B
:1014390006F97BFF120F4D7FD07E07120467120158
:02144900592226
:0614F000EF432020200064
:10144B0090002AE4F0A304F07839760AD202D20392
:10145B001201599013C1E493FE740193AA06F97B10
:10146B00FF1201C27F05D20612019C90002AE0FEFA
:10147B00A3E0FF7B017A00791912038C7B017A00C0
:10148B0079191201C27BFF7A1479F01201C2120F83
:10149B0017500A120F21BF2A0412015922120C6F86
:1014AB00501C9013C3E493FE740193AA06F97BFFBF
:1014BB00120F4D7FDC7E05120467120159227B014E
:1014CB007A00792A120BFE509B9013C3E493FE749F
:1014DB000193AA06F97BFF120F4D7FDC7E051204E8
:0414EB00671201592A
:0114EF0022DA
:1014F600C0E0C0F0C083C082C0D0C000C001C0023E
:10150600C003C004C005C006C007120E47D007D0EE
:1015160006D005D004D003D002D001D000D0D0D060
:0815260082D083D0F0D0E03246
:10152E007F017C147DF612154B5388EF5389F043DF
:0D153E008901E4F58CF58AD2A943881022BA
:10154B00EF75F008A42403FFE5F03420FE0FEFAA9B
:10155B000670010E14F5828A837402F08F828E83DB
:05156B00ECF0A3EDF01F
:011570002258
:10157100AF84A2AF9205C2AF7584087420900004B5
:10158100F0E4758202F08F84A20592AF208C0312E1
:03159100152E22F2
:10159400858414A2AF9205C2AF75840890000474C8
:1015A40021F07F2F7E001204569000047420F085F1
:1015B4008A13758202E054016016C3E58A9513D339
:1015C400943C400A851484A20592AF7F022280E5F0
:1015D4007F037E00120456858A13758202E054014B
:1015E4007016C3E58A9513D394B4400A851484A273
:1015F4000592AF7F032280E5851484A20592AF7F14
:021604000022C2
:101606008F13858415A2AF9205C2AF75840890002A
:1016160004E4F514E51330E0087421F07420F0803A
:10162600037421F07F027E001204567420F0E51345
:10163600C313F5130514E514C3940840D785158420
:05164600A20592AF2295
:10164B00751444858415A2AF9205C2AF75840890BA
:10165B000004E4F513E51430E0087421F07420F075
:10166B0080037421F07F027E001204567420F0E593
:10167B0014C313F5140513E513C3940740D7742152
:10168B00F07F017E001204567582027401F08515FD
:06169B0084A20592AF22BB
:1016A1008B138A148915858418A2AF9205C2AF7570
:1016B1008408E4F517F516E517C313F51790000430
:1016C1007421F0007420F000000000000000009080
:1016D1000002E0540160034317807F037E0012047F
:1016E100560516E516C3940840CD851884A20592C7
:0D16F100AFAB13AA14A915E5171217442278
:10008C00021054E493A3F8E493A34003F68001F226
:10009C0008DFF48029E493A3F85407240CC8C33375
:1000AC00C4540F4420C8834004F456800146F6DF44
:1000BC00E4800B01020408102040809002E6E47EEC
:1000CC00019360BCA3FF543F30E509541FFEE49339
:1000DC00A360010ECF54C025E060A840B8E493A300
:1000EC00FAE493A3F8E493A3C8C582C8CAC583CA2B
:1000FC00F0A3C8C582C8CAC583CADFE9DEE780BEE3
:0103540000A8
:1016FE00BB010689828A83E0225002E722BBFE02EA
:09170E00E32289828A83E493221C
:10171700BB010CE58229F582E5833AF583E0225087
:1017270006E92582F8E622BBFE06E92582F8E222D1
:0D173700E58229F582E5833AF583E49322EB
:10174400BB010689828A83F0225002F722BBFE0184
:02175400F3227E
:10175600F8BB010DE58229F582E5833AF583E8F0C9
:10176600225006E92582C8F622BBFE05E92582C875
:02177600F2225D
:10177800BC000BBE0029EF8DF084FFADF022E4CC55
:10178800F875F008EF2FFFEE33FEEC33FCEE9DEC1E
:10179800984005FCEE9DFE0FD5F0E9E4CEFD22ED64
:1017A800F8F5F0EE8420D21CFEADF075F008EF2FAE
:1017B800FFED33FD4007985006D5F0F222C398FD9F
:0517C8000FD5F0EA223C
:1017CD00C2D5EC30E709B2D5E4C39DFDE49CFCEE37
:1017DD0030E715B2D5E4C39FFFE49EFE121778C320
:1017ED00E49DFDE49CFC800312177830D507C3E41B
:0617FD009FFFE49EFE22A6
:10180300C5F0F8A3E028F0C5F0F8E5821582700270
:061813001583E038F0220D
:10181900A3F8E0C5F025F0F0E58215827002158382
:06182900E0C838F0E822DF
:10182F00BB010A89828A83F0E5F0A3F0225006F704
:0F183F0009A7F01922BBFE06F3E5F009F3192201
:0C184E00A42582F582E5F03583F58322A5
:10185A00FAE6FB0808E6F925F0F618E6CA3AF6228F
:10186A00FAE6FB0808E625F0F9F618E63AFAF6224F
:09187A00E0FBA3E0FAA3E0F9226F
:09188300EBF0A3EAF0A3E9F02266
:00000001FF
:02008006000078
