:03000000020100FA
:0300230002011FB8
:1801000075D751759E85759D2D7598507584089000071202087411F0ED
:18011800D2ACD2AF02011CC2ACC298C299AB99EBB4C31512016474FEEA
:18013000F5993099FDC29974FEF5993099FDC299B4C41274C4F5993067
:1801480099FDC29974C4F5993099FDC29975840890000712020874227D
:18016000F0D2AC3275FD0D75FA0075F9007D007E0075EF8C9010007A86
:1801780000E493F5FAA3E493F5F9A30C1202080A00BC010B75D8011204
:1801900001E375D800800B7C0075D8001201E375D800BD08028009BA85
:1801A800400302017102017975840890000712020874DDF0758400908E
:1801C0000000E0A3F5993099FDC299120208E583FDBD08EE7584089030
:1801D800000712020874FFF07B0022C082C083758400EDF583EEF582A4
:1801F00075F500D2DCE5DAF0A3E5D9F0A3E583FDE582FED083D08222AB
:0D020800C0D079067822D8FED9FAD0D022D5
:1810000007FF08C8098E0A510B0F0BC40C710D120DA70E2E0EA50F0DCC
:181018000F630FA60FD70FF50FFF0FF50FD70FA60F630F0D0EA50E2E85
:181030000DA70D120C710BC40B0F0A51098E08C807FF0736067005AD42
:1810480004EF043A038D02EC025701D0015900F1009B00580027000949
:181060000000000900270058009B00F1015901D0025702EC038D043A24
:0810780004EF05AD0670073618
:00000001FF
:020000060000F8
